{
  "_format": "hh-sol-artifact-1",
  "contractName": "TeenPattiGame",
  "sourceName": "contracts/TeenPattiGame.sol",
  "abi": [
    {
      "inputs": [
        {
          "internalType": "address",
          "name": "_token",
          "type": "address"
        },
        {
          "internalType": "address",
          "name": "_treasury",
          "type": "address"
        }
      ],
      "stateMutability": "nonpayable",
      "type": "constructor"
    },
    {
      "inputs": [],
      "name": "EnforcedPause",
      "type": "error"
    },
    {
      "inputs": [],
      "name": "ExpectedPause",
      "type": "error"
    },
    {
      "inputs": [
        {
          "internalType": "address",
          "name": "owner",
          "type": "address"
        }
      ],
      "name": "OwnableInvalidOwner",
      "type": "error"
    },
    {
      "inputs": [
        {
          "internalType": "address",
          "name": "account",
          "type": "address"
        }
      ],
      "name": "OwnableUnauthorizedAccount",
      "type": "error"
    },
    {
      "inputs": [],
      "name": "ReentrancyGuardReentrantCall",
      "type": "error"
    },
    {
      "anonymous": false,
      "inputs": [
        {
          "indexed": true,
          "internalType": "bytes32",
          "name": "roomId",
          "type": "bytes32"
        },
        {
          "indexed": true,
          "internalType": "address",
          "name": "player",
          "type": "address"
        },
        {
          "indexed": false,
          "internalType": "uint256",
          "name": "amount",
          "type": "uint256"
        }
      ],
      "name": "BetPlaced",
      "type": "event"
    },
    {
      "anonymous": false,
      "inputs": [
        {
          "indexed": true,
          "internalType": "bytes32",
          "name": "roomId",
          "type": "bytes32"
        },
        {
          "indexed": true,
          "internalType": "address",
          "name": "player",
          "type": "address"
        },
        {
          "indexed": false,
          "internalType": "uint256",
          "name": "amount",
          "type": "uint256"
        }
      ],
      "name": "EmergencyWithdraw",
      "type": "event"
    },
    {
      "anonymous": false,
      "inputs": [
        {
          "indexed": true,
          "internalType": "bytes32",
          "name": "roomId",
          "type": "bytes32"
        },
        {
          "indexed": false,
          "internalType": "uint256",
          "name": "pot",
          "type": "uint256"
        },
        {
          "indexed": false,
          "internalType": "uint256",
          "name": "playerCount",
          "type": "uint256"
        }
      ],
      "name": "GameStarted",
      "type": "event"
    },
    {
      "anonymous": false,
      "inputs": [
        {
          "indexed": true,
          "internalType": "address",
          "name": "previousOwner",
          "type": "address"
        },
        {
          "indexed": true,
          "internalType": "address",
          "name": "newOwner",
          "type": "address"
        }
      ],
      "name": "OwnershipTransferred",
      "type": "event"
    },
    {
      "anonymous": false,
      "inputs": [
        {
          "indexed": false,
          "internalType": "address",
          "name": "account",
          "type": "address"
        }
      ],
      "name": "Paused",
      "type": "event"
    },
    {
      "anonymous": false,
      "inputs": [
        {
          "indexed": true,
          "internalType": "bytes32",
          "name": "roomId",
          "type": "bytes32"
        },
        {
          "indexed": true,
          "internalType": "address",
          "name": "player",
          "type": "address"
        },
        {
          "indexed": false,
          "internalType": "uint256",
          "name": "buyIn",
          "type": "uint256"
        }
      ],
      "name": "PlayerJoined",
      "type": "event"
    },
    {
      "anonymous": false,
      "inputs": [
        {
          "indexed": true,
          "internalType": "bytes32",
          "name": "roomId",
          "type": "bytes32"
        },
        {
          "indexed": true,
          "internalType": "address",
          "name": "player",
          "type": "address"
        },
        {
          "indexed": false,
          "internalType": "uint256",
          "name": "refund",
          "type": "uint256"
        }
      ],
      "name": "PlayerLeft",
      "type": "event"
    },
    {
      "anonymous": false,
      "inputs": [
        {
          "indexed": false,
          "internalType": "uint256",
          "name": "newRakeFee",
          "type": "uint256"
        }
      ],
      "name": "RakeFeeUpdated",
      "type": "event"
    },
    {
      "anonymous": false,
      "inputs": [
        {
          "indexed": true,
          "internalType": "bytes32",
          "name": "roomId",
          "type": "bytes32"
        }
      ],
      "name": "RoomClosed",
      "type": "event"
    },
    {
      "anonymous": false,
      "inputs": [
        {
          "indexed": true,
          "internalType": "bytes32",
          "name": "roomId",
          "type": "bytes32"
        },
        {
          "indexed": true,
          "internalType": "address",
          "name": "creator",
          "type": "address"
        },
        {
          "indexed": false,
          "internalType": "uint256",
          "name": "buyIn",
          "type": "uint256"
        },
        {
          "indexed": false,
          "internalType": "uint256",
          "name": "maxPlayers",
          "type": "uint256"
        }
      ],
      "name": "RoomCreated",
      "type": "event"
    },
    {
      "anonymous": false,
      "inputs": [
        {
          "indexed": true,
          "internalType": "address",
          "name": "newTreasury",
          "type": "address"
        }
      ],
      "name": "TreasuryUpdated",
      "type": "event"
    },
    {
      "anonymous": false,
      "inputs": [
        {
          "indexed": false,
          "internalType": "address",
          "name": "account",
          "type": "address"
        }
      ],
      "name": "Unpaused",
      "type": "event"
    },
    {
      "anonymous": false,
      "inputs": [
        {
          "indexed": true,
          "internalType": "bytes32",
          "name": "roomId",
          "type": "bytes32"
        },
        {
          "indexed": true,
          "internalType": "address",
          "name": "winner",
          "type": "address"
        },
        {
          "indexed": false,
          "internalType": "uint256",
          "name": "amount",
          "type": "uint256"
        },
        {
          "indexed": false,
          "internalType": "uint256",
          "name": "rake",
          "type": "uint256"
        }
      ],
      "name": "WinnerDeclared",
      "type": "event"
    },
    {
      "inputs": [],
      "name": "GAME_TIMEOUT",
      "outputs": [
        {
          "internalType": "uint256",
          "name": "",
          "type": "uint256"
        }
      ],
      "stateMutability": "view",
      "type": "function"
    },
    {
      "inputs": [
        {
          "internalType": "uint256",
          "name": "",
          "type": "uint256"
        }
      ],
      "name": "activeRoomIds",
      "outputs": [
        {
          "internalType": "bytes32",
          "name": "",
          "type": "bytes32"
        }
      ],
      "stateMutability": "view",
      "type": "function"
    },
    {
      "inputs": [
        {
          "internalType": "bytes32",
          "name": "_roomId",
          "type": "bytes32"
        }
      ],
      "name": "closeRoom",
      "outputs": [],
      "stateMutability": "nonpayable",
      "type": "function"
    },
    {
      "inputs": [
        {
          "internalType": "uint256",
          "name": "_buyIn",
          "type": "uint256"
        },
        {
          "internalType": "uint256",
          "name": "_maxPlayers",
          "type": "uint256"
        }
      ],
      "name": "createRoom",
      "outputs": [
        {
          "internalType": "bytes32",
          "name": "",
          "type": "bytes32"
        }
      ],
      "stateMutability": "nonpayable",
      "type": "function"
    },
    {
      "inputs": [
        {
          "internalType": "bytes32",
          "name": "_roomId",
          "type": "bytes32"
        },
        {
          "internalType": "address",
          "name": "_winner",
          "type": "address"
        }
      ],
      "name": "declareWinner",
      "outputs": [],
      "stateMutability": "nonpayable",
      "type": "function"
    },
    {
      "inputs": [
        {
          "internalType": "bytes32",
          "name": "_roomId",
          "type": "bytes32"
        }
      ],
      "name": "emergencyWithdraw",
      "outputs": [],
      "stateMutability": "nonpayable",
      "type": "function"
    },
    {
      "inputs": [],
      "name": "getActiveRooms",
      "outputs": [
        {
          "internalType": "bytes32[]",
          "name": "",
          "type": "bytes32[]"
        }
      ],
      "stateMutability": "view",
      "type": "function"
    },
    {
      "inputs": [
        {
          "internalType": "bytes32",
          "name": "_roomId",
          "type": "bytes32"
        },
        {
          "internalType": "address",
          "name": "_player",
          "type": "address"
        }
      ],
      "name": "getPlayerBalance",
      "outputs": [
        {
          "internalType": "uint256",
          "name": "",
          "type": "uint256"
        }
      ],
      "stateMutability": "view",
      "type": "function"
    },
    {
      "inputs": [
        {
          "internalType": "address",
          "name": "_player",
          "type": "address"
        }
      ],
      "name": "getPlayerRooms",
      "outputs": [
        {
          "internalType": "bytes32[]",
          "name": "",
          "type": "bytes32[]"
        }
      ],
      "stateMutability": "view",
      "type": "function"
    },
    {
      "inputs": [
        {
          "internalType": "bytes32",
          "name": "_roomId",
          "type": "bytes32"
        }
      ],
      "name": "getRoomDetails",
      "outputs": [
        {
          "internalType": "address",
          "name": "creator",
          "type": "address"
        },
        {
          "internalType": "uint256",
          "name": "buyIn",
          "type": "uint256"
        },
        {
          "internalType": "uint256",
          "name": "pot",
          "type": "uint256"
        },
        {
          "internalType": "uint256",
          "name": "maxPlayers",
          "type": "uint256"
        },
        {
          "internalType": "uint256",
          "name": "currentPlayers",
          "type": "uint256"
        },
        {
          "internalType": "enum TeenPattiGame.GameState",
          "name": "state",
          "type": "uint8"
        },
        {
          "internalType": "address",
          "name": "winner",
          "type": "address"
        }
      ],
      "stateMutability": "view",
      "type": "function"
    },
    {
      "inputs": [
        {
          "internalType": "bytes32",
          "name": "_roomId",
          "type": "bytes32"
        }
      ],
      "name": "getRoomPlayers",
      "outputs": [
        {
          "internalType": "address[]",
          "name": "",
          "type": "address[]"
        }
      ],
      "stateMutability": "view",
      "type": "function"
    },
    {
      "inputs": [
        {
          "internalType": "bytes32",
          "name": "_roomId",
          "type": "bytes32"
        }
      ],
      "name": "handleTimeout",
      "outputs": [],
      "stateMutability": "nonpayable",
      "type": "function"
    },
    {
      "inputs": [
        {
          "internalType": "bytes32",
          "name": "_roomId",
          "type": "bytes32"
        }
      ],
      "name": "joinRoom",
      "outputs": [],
      "stateMutability": "nonpayable",
      "type": "function"
    },
    {
      "inputs": [
        {
          "internalType": "bytes32",
          "name": "_roomId",
          "type": "bytes32"
        }
      ],
      "name": "leaveRoom",
      "outputs": [],
      "stateMutability": "nonpayable",
      "type": "function"
    },
    {
      "inputs": [],
      "name": "owner",
      "outputs": [
        {
          "internalType": "address",
          "name": "",
          "type": "address"
        }
      ],
      "stateMutability": "view",
      "type": "function"
    },
    {
      "inputs": [],
      "name": "pause",
      "outputs": [],
      "stateMutability": "nonpayable",
      "type": "function"
    },
    {
      "inputs": [],
      "name": "paused",
      "outputs": [
        {
          "internalType": "bool",
          "name": "",
          "type": "bool"
        }
      ],
      "stateMutability": "view",
      "type": "function"
    },
    {
      "inputs": [
        {
          "internalType": "bytes32",
          "name": "_roomId",
          "type": "bytes32"
        },
        {
          "internalType": "address",
          "name": "_player",
          "type": "address"
        },
        {
          "internalType": "uint256",
          "name": "_amount",
          "type": "uint256"
        }
      ],
      "name": "placeBet",
      "outputs": [],
      "stateMutability": "nonpayable",
      "type": "function"
    },
    {
      "inputs": [
        {
          "internalType": "address",
          "name": "",
          "type": "address"
        },
        {
          "internalType": "uint256",
          "name": "",
          "type": "uint256"
        }
      ],
      "name": "playerRooms",
      "outputs": [
        {
          "internalType": "bytes32",
          "name": "",
          "type": "bytes32"
        }
      ],
      "stateMutability": "view",
      "type": "function"
    },
    {
      "inputs": [],
      "name": "rakeFee",
      "outputs": [
        {
          "internalType": "uint256",
          "name": "",
          "type": "uint256"
        }
      ],
      "stateMutability": "view",
      "type": "function"
    },
    {
      "inputs": [
        {
          "internalType": "address",
          "name": "_token",
          "type": "address"
        },
        {
          "internalType": "uint256",
          "name": "_amount",
          "type": "uint256"
        }
      ],
      "name": "recoverTokens",
      "outputs": [],
      "stateMutability": "nonpayable",
      "type": "function"
    },
    {
      "inputs": [],
      "name": "renounceOwnership",
      "outputs": [],
      "stateMutability": "nonpayable",
      "type": "function"
    },
    {
      "inputs": [
        {
          "internalType": "bytes32",
          "name": "",
          "type": "bytes32"
        }
      ],
      "name": "rooms",
      "outputs": [
        {
          "internalType": "bytes32",
          "name": "roomId",
          "type": "bytes32"
        },
        {
          "internalType": "address",
          "name": "creator",
          "type": "address"
        },
        {
          "internalType": "uint256",
          "name": "buyIn",
          "type": "uint256"
        },
        {
          "internalType": "uint256",
          "name": "pot",
          "type": "uint256"
        },
        {
          "internalType": "uint256",
          "name": "maxPlayers",
          "type": "uint256"
        },
        {
          "internalType": "enum TeenPattiGame.GameState",
          "name": "state",
          "type": "uint8"
        },
        {
          "internalType": "address",
          "name": "winner",
          "type": "address"
        },
        {
          "internalType": "uint256",
          "name": "createdAt",
          "type": "uint256"
        },
        {
          "internalType": "uint256",
          "name": "finishedAt",
          "type": "uint256"
        }
      ],
      "stateMutability": "view",
      "type": "function"
    },
    {
      "inputs": [
        {
          "internalType": "bytes32",
          "name": "_roomId",
          "type": "bytes32"
        }
      ],
      "name": "startGame",
      "outputs": [],
      "stateMutability": "nonpayable",
      "type": "function"
    },
    {
      "inputs": [],
      "name": "token",
      "outputs": [
        {
          "internalType": "contract IERC20",
          "name": "",
          "type": "address"
        }
      ],
      "stateMutability": "view",
      "type": "function"
    },
    {
      "inputs": [],
      "name": "totalRakeCollected",
      "outputs": [
        {
          "internalType": "uint256",
          "name": "",
          "type": "uint256"
        }
      ],
      "stateMutability": "view",
      "type": "function"
    },
    {
      "inputs": [
        {
          "internalType": "address",
          "name": "newOwner",
          "type": "address"
        }
      ],
      "name": "transferOwnership",
      "outputs": [],
      "stateMutability": "nonpayable",
      "type": "function"
    },
    {
      "inputs": [],
      "name": "treasury",
      "outputs": [
        {
          "internalType": "address",
          "name": "",
          "type": "address"
        }
      ],
      "stateMutability": "view",
      "type": "function"
    },
    {
      "inputs": [],
      "name": "unpause",
      "outputs": [],
      "stateMutability": "nonpayable",
      "type": "function"
    },
    {
      "inputs": [
        {
          "internalType": "uint256",
          "name": "_newRakeFee",
          "type": "uint256"
        }
      ],
      "name": "updateRakeFee",
      "outputs": [],
      "stateMutability": "nonpayable",
      "type": "function"
    },
    {
      "inputs": [
        {
          "internalType": "address",
          "name": "_newTreasury",
          "type": "address"
        }
      ],
      "name": "updateTreasury",
      "outputs": [],
      "stateMutability": "nonpayable",
      "type": "function"
    }
  ],
  "bytecode": "0x60806040526101f46006553480156200001757600080fd5b5060405162002964380380620029648339810160408190526200003a91620001cb565b33806200006257604051631e4fbdf760e01b8152600060048201526024015b60405180910390fd5b6200006d816200015e565b50600180556001600160a01b038216620000ca5760405162461bcd60e51b815260206004820152601560248201527f496e76616c696420746f6b656e20616464726573730000000000000000000000604482015260640162000059565b6001600160a01b038116620001225760405162461bcd60e51b815260206004820152601860248201527f496e76616c696420747265617375727920616464726573730000000000000000604482015260640162000059565b60028054610100600160a81b0319166101006001600160a01b0394851602179055600780546001600160a01b0319169190921617905562000203565b600080546001600160a01b038381166001600160a01b0319831681178455604051919092169283917f8be0079c531659141344cd1fd0a4f28419497f9722a3daafe3b4186f6b6457e09190a35050565b80516001600160a01b0381168114620001c657600080fd5b919050565b60008060408385031215620001df57600080fd5b620001ea83620001ae565b9150620001fa60208401620001ae565b90509250929050565b61275180620002136000396000f3fe608060405234801561001057600080fd5b50600436106101e55760003560e01c806375870d651161010f578063ab196acd116100a2578063ea57326511610071578063ea573265146104a9578063f2fde38b146104bc578063f54fdb00146104cf578063fc0c546a146104ef57600080fd5b8063ab196acd146103f0578063af8b9b1814610403578063bc0730e814610416578063d7fbc2e41461042957600080fd5b806385039bf6116100de57806385039bf6146103ae5780638a8cefca146103c35780638da5cb5b146103d6578063aa34331b146103e757600080fd5b806375870d651461036d578063775e729b146103805780637f51bb1f146103935780638456cb59146103a657600080fd5b80633f4ba83a1161018757806361d027b31161015657806361d027b3146103145780636e9359e41461033f578063715018a6146103525780637569a69e1461035a57600080fd5b80633f4ba83a146102d05780634b29b4c4146102d85780634c92fb12146102eb5780635c975abb146102fe57600080fd5b806321fe77aa116101c357806321fe77aa14610224578063227072651461023757806335f1e5871461024a5780633c7192c1146102bd57600080fd5b8063069c9fae146101ea578063099420b6146101ff5780631d4fd9611461021b575b600080fd5b6101fd6101f83660046123ab565b610507565b005b610208610e1081565b6040519081526020015b60405180910390f35b61020860065481565b6101fd6102323660046123d5565b6105f9565b6102086102453660046123d5565b6109b6565b6102aa6102583660046123d5565b60009081526003602081905260409091206001810154918101546004820154600583015460028401546006909401546001600160a01b0395861696939592949193919260ff8216926101009092041690565b6040516102129796959493929190612426565b6101fd6102cb3660046123d5565b6109d7565b6101fd610be8565b6101fd6102e63660046123d5565b610bfa565b6101fd6102f93660046123d5565b610fe6565b60025460ff166040519015158152602001610212565b600754610327906001600160a01b031681565b6040516001600160a01b039091168152602001610212565b6101fd61034d366004612476565b6111c0565b6101fd611567565b6101fd6103683660046124a2565b611579565b6101fd61037b3660046123d5565b61177d565b61020861038e366004612476565b6119fe565b6101fd6103a13660046124d7565b611a2b565b6101fd611ad3565b6103b6611ae3565b60405161021291906124f9565b6103b66103d13660046124d7565b611b3b565b6000546001600160a01b0316610327565b61020860085481565b6102086103fe36600461253d565b611ba7565b6101fd6104113660046123d5565b611f91565b6102086104243660046123ab565b6120af565b6104946104373660046123d5565b60036020819052600091825260409091208054600182015492820154600483015460058401546006850154600786015460089096015494966001600160a01b039081169694959394929360ff831693610100909304909116919089565b6040516102129998979695949392919061255f565b6101fd6104b73660046123d5565b6120e0565b6101fd6104ca3660046124d7565b612169565b6104e26104dd3660046123d5565b6121a4565b60405161021291906125bc565b6002546103279061010090046001600160a01b031681565b61050f612212565b6001600160a01b0382166105625760405162461bcd60e51b8152602060048201526015602482015274496e76616c696420746f6b656e206164647265737360581b60448201526064015b60405180910390fd5b816001600160a01b031663a9059cbb6105836000546001600160a01b031690565b6040516001600160e01b031960e084901b1681526001600160a01b039091166004820152602481018490526044016020604051808303816000875af11580156105d0573d6000803e3d6000fd5b505050506040513d601f19601f820116820180604052508101906105f491906125fd565b505050565b61060161223f565b6000818152600360209081526040808320338452600a81019092529091205460ff166106625760405162461bcd60e51b815260206004820152601060248201526f4e6f7420696e207468697320726f6f6d60801b6044820152606401610559565b6000600682015460ff16600381111561067d5761067d6123ee565b146106c15760405162461bcd60e51b815260206004820152601460248201527311d85b5948185b1c9958591e481cdd185c9d195960621b6044820152606401610559565b336000908152600982016020526040902054806107175760405162461bcd60e51b8152602060048201526014602482015273139bc818985b185b98d9481d1bc81c99599d5b9960621b6044820152606401610559565b336000908152600a830160209081526040808320805460ff19169055600985019091528120819055600483018054839290610753908490612635565b90915550600090505b600283015481101561086b57336001600160a01b031683600201828154811061078757610787612648565b6000918252602090912001546001600160a01b031603610859576002830180546107b390600190612635565b815481106107c3576107c3612648565b6000918252602090912001546002840180546001600160a01b0390921691839081106107f1576107f1612648565b9060005260206000200160006101000a8154816001600160a01b0302191690836001600160a01b03160217905550826002018054806108325761083261265e565b600082815260209020810160001990810180546001600160a01b031916905501905561086b565b8061086381612674565b91505061075c565b5060025460405163a9059cbb60e01b8152336004820152602481018390526101009091046001600160a01b03169063a9059cbb906044016020604051808303816000875af11580156108c1573d6000803e3d6000fd5b505050506040513d601f19601f820116820180604052508101906108e591906125fd565b61092a5760405162461bcd60e51b81526020600482015260166024820152751499599d5b99081d1c985b9cd9995c8819985a5b195960521b6044820152606401610559565b604051818152339084907fcf0d7a42a42baf449dbf1a7c4b7b9a7f4bac3a411564ef0d46979e7fb9a59bfd9060200160405180910390a360028201546000036109a85760068201805460ff1916600317905560405183907ff89b62d5ed31af5007e4f697e3397fd9a3854dfecb25a7dd0c8d3d9bf8bd816890600090a25b50506109b360018055565b50565b600581815481106109c657600080fd5b600091825260209091200154905081565b6109df61223f565b60008181526003602052604090206001600682015460ff166003811115610a0857610a086123ee565b14610a255760405162461bcd60e51b81526004016105599061268d565b610e108160070154610a3791906126b6565b421015610a7c5760405162461bcd60e51b8152602060048201526013602482015272151a5b595bdd5d081b9bdd081c995858da1959606a1b6044820152606401610559565b60005b6002820154811015610b9d576000826002018281548110610aa257610aa2612648565b60009182526020909120015460038401546001600160a01b0390911691508015610b885760025460405163a9059cbb60e01b81526001600160a01b038481166004830152602482018490526101009092049091169063a9059cbb906044016020604051808303816000875af1158015610b1f573d6000803e3d6000fd5b505050506040513d601f19601f82011682018060405250810190610b4391906125fd565b610b885760405162461bcd60e51b81526020600482015260166024820152751499599d5b99081d1c985b9cd9995c8819985a5b195960521b6044820152606401610559565b50508080610b9590612674565b915050610a7f565b5060068101805460ff1916600317905560006004820181905560405183917ff89b62d5ed31af5007e4f697e3397fd9a3854dfecb25a7dd0c8d3d9bf8bd816891a2506109b360018055565b610bf0612212565b610bf8612269565b565b610c0261223f565b610c0a6122bb565b600081815260036020526040902060018101546001600160a01b0316610c685760405162461bcd60e51b8152602060048201526013602482015272149bdbdb48191bd95cc81b9bdd08195e1a5cdd606a1b6044820152606401610559565b6000600682015460ff166003811115610c8357610c836123ee565b14610cd05760405162461bcd60e51b815260206004820152601a60248201527f526f6f6d206e6f7420616363657074696e6720706c61796572730000000000006044820152606401610559565b336000908152600a8201602052604090205460ff1615610d325760405162461bcd60e51b815260206004820152601860248201527f416c7265616479206a6f696e6564207468697320726f6f6d00000000000000006044820152606401610559565b6005810154600282015410610d785760405162461bcd60e51b815260206004820152600c60248201526b149bdbdb481a5cc8199d5b1b60a21b6044820152606401610559565b60038101546002546040516370a0823160e01b81523360048201526101009091046001600160a01b0316906370a0823190602401602060405180830381865afa158015610dc9573d6000803e3d6000fd5b505050506040513d601f19601f82011682018060405250810190610ded91906126c9565b1015610e3b5760405162461bcd60e51b815260206004820152601a60248201527f496e73756666696369656e7420746f6b656e2062616c616e63650000000000006044820152606401610559565b60025460038201546040516323b872dd60e01b815233600482015230602482015260448101919091526101009091046001600160a01b0316906323b872dd906064016020604051808303816000875af1158015610e9c573d6000803e3d6000fd5b505050506040513d601f19601f82011682018060405250810190610ec091906125fd565b610f045760405162461bcd60e51b8152602060048201526015602482015274151bdad95b881d1c985b9cd9995c8819985a5b1959605a1b6044820152606401610559565b600281018054600181810183556000928352602080842090920180546001600160a01b03191633908117909155600385018054918552600986018452604080862092909255600a86019093528320805460ff191690911790555460048301805491929091610f739084906126b6565b9091555050336000818152600460209081526040808320805460018101825590845291909220018490556003830154905184917f65525cf08411b7a61d237681a43890956ad2e2ede88afd947f58eb4158c37f9591610fd491815260200190565b60405180910390a3506109b360018055565b610fee61223f565b600081815260036020526040902060018101546001600160a01b031661104c5760405162461bcd60e51b8152602060048201526013602482015272149bdbdb48191bd95cc81b9bdd08195e1a5cdd606a1b6044820152606401610559565b60018101546001600160a01b031633148061107157506000546001600160a01b031633145b6110ae5760405162461bcd60e51b815260206004820152600e60248201526d139bdd08185d5d1a1bdc9a5e995960921b6044820152606401610559565b6000600682015460ff1660038111156110c9576110c96123ee565b1461110d5760405162461bcd60e51b815260206004820152601460248201527311d85b5948185b1c9958591e481cdd185c9d195960621b6044820152606401610559565b60028181015410156111615760405162461bcd60e51b815260206004820152601760248201527f4e656564206174206c65617374203220706c61796572730000000000000000006044820152606401610559565b60068101805460ff191660011790556004810154600282015460408051928352602083019190915283917f38f56d43c299aca81fdefe3bba16676fb1482e023cd61ab890dfdb087117e9d3910160405180910390a2506109b360018055565b6111c861223f565b600082815260036020526040812090546001600160a01b0316331461122f5760405162461bcd60e51b815260206004820152601f60248201527f4f6e6c79206261636b656e642063616e206465636c6172652077696e6e6572006044820152606401610559565b6001600682015460ff16600381111561124a5761124a6123ee565b146112675760405162461bcd60e51b81526004016105599061268d565b6001600160a01b0382166000908152600a8201602052604090205460ff166112c65760405162461bcd60e51b815260206004820152601260248201527157696e6e6572206e6f7420696e20726f6f6d60701b6044820152606401610559565b60048101548061130f5760405162461bcd60e51b81526020600482015260146024820152734e6f20706f7420746f206469737472696275746560601b6044820152606401610559565b60006127106006548361132291906126e2565b61132c91906126f9565b9050600061133a8284612635565b6006850180546001600160a01b038881166101008181026001600160a81b03199094169390931760029081179094554260088a015560006004808b0191909155935460405163a9059cbb60e01b8152948501919091526024840185905293945092049091169063a9059cbb906044016020604051808303816000875af11580156113c8573d6000803e3d6000fd5b505050506040513d601f19601f820116820180604052508101906113ec91906125fd565b6114315760405162461bcd60e51b815260206004820152601660248201527515da5b9b995c881d1c985b9cd9995c8819985a5b195960521b6044820152606401610559565b81156115105760025460075460405163a9059cbb60e01b81526001600160a01b03918216600482015260248101859052610100909204169063a9059cbb906044016020604051808303816000875af1158015611491573d6000803e3d6000fd5b505050506040513d601f19601f820116820180604052508101906114b591906125fd565b6114f85760405162461bcd60e51b815260206004820152601460248201527314985ad9481d1c985b9cd9995c8819985a5b195960621b6044820152606401610559565b816008600082825461150a91906126b6565b90915550505b60408051828152602081018490526001600160a01b0387169188917f29b433d2cb0c1f1a8245540e06ffe118d2013464095f475f9e057308c0f0bac7910160405180910390a35050505061156360018055565b5050565b61156f612212565b610bf860006122df565b61158161223f565b600083815260036020526040812090546001600160a01b031633146115e85760405162461bcd60e51b815260206004820152601b60248201527f4f6e6c79206261636b656e642063616e20706c616365206265747300000000006044820152606401610559565b6001600682015460ff166003811115611603576116036123ee565b146116205760405162461bcd60e51b81526004016105599061268d565b6001600160a01b0383166000908152600a8201602052604090205460ff1661167f5760405162461bcd60e51b8152602060048201526012602482015271506c61796572206e6f7420696e20726f6f6d60701b6044820152606401610559565b6001600160a01b03831660009081526009820160205260409020548211156116e95760405162461bcd60e51b815260206004820152601b60248201527f496e73756666696369656e7420706c617965722062616c616e636500000000006044820152606401610559565b6001600160a01b038316600090815260098201602052604081208054849290611713908490612635565b925050819055508181600401600082825461172e91906126b6565b90915550506040518281526001600160a01b0384169085907fcd5f79909b53eb4c55b0a2d7004914519bad1e3ade1b3dae6005d528d83da31e9060200160405180910390a3506105f460018055565b61178561223f565b6000818152600360209081526040808320338452600a81019092529091205460ff166117e65760405162461bcd60e51b815260206004820152601060248201526f4e6f7420696e207468697320726f6f6d60801b6044820152606401610559565b6001600682015460ff166003811115611801576118016123ee565b1461181e5760405162461bcd60e51b81526004016105599061268d565b336000908152600982016020526040902054806118765760405162461bcd60e51b81526020600482015260166024820152754e6f2062616c616e636520746f20776974686472617760501b6044820152606401610559565b6000612710611887836103e86126e2565b61189191906126f9565b9050600061189f8284612635565b3360008181526009870160209081526040808320839055600a890190915290819020805460ff19169055600254905163a9059cbb60e01b815292935061010090046001600160a01b03169163a9059cbb916119129185906004016001600160a01b03929092168252602082015260400190565b6020604051808303816000875af1158015611931573d6000803e3d6000fd5b505050506040513d601f19601f8201168201806040525081019061195591906125fd565b6119a15760405162461bcd60e51b815260206004820152601860248201527f5769746864726177207472616e73666572206661696c656400000000000000006044820152606401610559565b818460040160008282546119b591906126b6565b9091555050604051818152339086907fd3e69353709a7dcaab28b44353b592c552cd797c95ffb523f924c0a16b4a2c2b9060200160405180910390a3505050506109b360018055565b60008281526003602090815260408083206001600160a01b03851684526009019091529020545b92915050565b611a33612212565b6001600160a01b038116611a895760405162461bcd60e51b815260206004820152601860248201527f496e76616c6964207472656173757279206164647265737300000000000000006044820152606401610559565b600780546001600160a01b0319166001600160a01b0383169081179091556040517f7dae230f18360d76a040c81f050aa14eb9d6dc7901b20fc5d855e2a20fe814d190600090a250565b611adb612212565b610bf861232f565b60606005805480602002602001604051908101604052809291908181526020018280548015611b3157602002820191906000526020600020905b815481526020019060010190808311611b1d575b5050505050905090565b6001600160a01b038116600090815260046020908152604091829020805483518184028101840190945280845260609392830182828015611b9b57602002820191906000526020600020905b815481526020019060010190808311611b87575b50505050509050919050565b6000611bb161223f565b611bb96122bb565b60008311611c095760405162461bcd60e51b815260206004820152601760248201527f4275792d696e206d75737420626520706f7369746976650000000000000000006044820152606401610559565b60028210158015611c1b575060068211155b611c5d5760405162461bcd60e51b8152602060048201526013602482015272496e76616c6964206d617820706c617965727360681b6044820152606401610559565b6002546040516370a0823160e01b8152336004820152849161010090046001600160a01b0316906370a0823190602401602060405180830381865afa158015611caa573d6000803e3d6000fd5b505050506040513d601f19601f82011682018060405250810190611cce91906126c9565b1015611d1c5760405162461bcd60e51b815260206004820152601a60248201527f496e73756666696369656e7420746f6b656e2062616c616e63650000000000006044820152606401610559565b6040516bffffffffffffffffffffffff193360601b16602082015242603482015244605482015260009060740160408051601f1981840301815291815281516020928301206000818152600393849052918220818155600180820180546001600160a01b03191633179055938101889055600581018790556006810180549295509093909160ff1916908302179055504260078201556002546040516323b872dd60e01b8152336004820152306024820152604481018790526101009091046001600160a01b0316906323b872dd906064016020604051808303816000875af1158015611e0d573d6000803e3d6000fd5b505050506040513d601f19601f82011682018060405250810190611e3191906125fd565b611e755760405162461bcd60e51b8152602060048201526015602482015274151bdad95b881d1c985b9cd9995c8819985a5b1959605a1b6044820152606401610559565b600281018054600180820183556000928352602080842090920180546001600160a01b0319163390811790915580845260098501835260408085208a9055600a86018452808520805460ff19168417905560048087018b9055600580548086019091557f036b6384b5eca791c62761152d0c79bb0604c104a5fb6f4eb0703f3154bb3db00188905584528085208054938401815585529383902090910185905582518881529182018790529184917f7205d4960f11b42d9694576da1d12e22b637d2eaac623cc7a27f41509be13523910160405180910390a3604051858152339083907f65525cf08411b7a61d237681a43890956ad2e2ede88afd947f58eb4158c37f959060200160405180910390a3509050611a2560018055565b60008181526003602052604090206002600682015460ff166003811115611fba57611fba6123ee565b1480611fde57506003600682015460ff166003811115611fdc57611fdc6123ee565b145b61201e5760405162461bcd60e51b815260206004820152601160248201527011d85b59481b9bdd08199a5b9a5cda1959607a1b6044820152606401610559565b60018101546001600160a01b031633148061204357506000546001600160a01b031633145b6120805760405162461bcd60e51b815260206004820152600e60248201526d139bdd08185d5d1a1bdc9a5e995960921b6044820152606401610559565b60405182907ff89b62d5ed31af5007e4f697e3397fd9a3854dfecb25a7dd0c8d3d9bf8bd816890600090a25050565b600460205281600052604060002081815481106120cb57600080fd5b90600052602060002001600091509150505481565b6120e8612212565b6103e881111561212e5760405162461bcd60e51b81526020600482015260116024820152700a4c2d6ca40cccaca40e8dede40d0d2ced607b1b6044820152606401610559565b60068190556040518181527f6b845bb86927d69db9a0fd7699fedbadfd7c12ad26d8cf7490c7fb8348ca958e9060200160405180910390a150565b612171612212565b6001600160a01b03811661219b57604051631e4fbdf760e01b815260006004820152602401610559565b6109b3816122df565b600081815260036020908152604091829020600201805483518184028101840190945280845260609392830182828015611b9b57602002820191906000526020600020905b81546001600160a01b031681526001909101906020018083116121e95750505050509050919050565b6000546001600160a01b03163314610bf85760405163118cdaa760e01b8152336004820152602401610559565b60026001540361226257604051633ee5aeb560e01b815260040160405180910390fd5b6002600155565b61227161236c565b6002805460ff191690557f5db9ee0a495bf2e6ff9c91a7834c1ba4fdd244a5e8aa4e537bd38aeae4b073aa335b6040516001600160a01b03909116815260200160405180910390a1565b60025460ff1615610bf85760405163d93c066560e01b815260040160405180910390fd5b600080546001600160a01b038381166001600160a01b0319831681178455604051919092169283917f8be0079c531659141344cd1fd0a4f28419497f9722a3daafe3b4186f6b6457e09190a35050565b6123376122bb565b6002805460ff191660011790557f62e78cea01bee320cd4e420270b5ea74000d11b0c9f74754ebdbfc544b05a25861229e3390565b60025460ff16610bf857604051638dfc202b60e01b815260040160405180910390fd5b80356001600160a01b03811681146123a657600080fd5b919050565b600080604083850312156123be57600080fd5b6123c78361238f565b946020939093013593505050565b6000602082840312156123e757600080fd5b5035919050565b634e487b7160e01b600052602160045260246000fd5b6004811061242257634e487b7160e01b600052602160045260246000fd5b9052565b6001600160a01b0388811682526020820188905260408201879052606082018690526080820185905260e082019061246160a0840186612404565b80841660c08401525098975050505050505050565b6000806040838503121561248957600080fd5b823591506124996020840161238f565b90509250929050565b6000806000606084860312156124b757600080fd5b833592506124c76020850161238f565b9150604084013590509250925092565b6000602082840312156124e957600080fd5b6124f28261238f565b9392505050565b6020808252825182820181905260009190848201906040850190845b8181101561253157835183529284019291840191600101612515565b50909695505050505050565b6000806040838503121561255057600080fd5b50508035926020909101359150565b8981526001600160a01b03898116602083015260408201899052606082018890526080820187905261012082019061259a60a0840188612404565b9490941660c082015260e0810192909252610100909101529695505050505050565b6020808252825182820181905260009190848201906040850190845b818110156125315783516001600160a01b0316835292840192918401916001016125d8565b60006020828403121561260f57600080fd5b815180151581146124f257600080fd5b634e487b7160e01b600052601160045260246000fd5b81810381811115611a2557611a2561261f565b634e487b7160e01b600052603260045260246000fd5b634e487b7160e01b600052603160045260246000fd5b6000600182016126865761268661261f565b5060010190565b6020808252600f908201526e47616d65206e6f742061637469766560881b604082015260600190565b80820180821115611a2557611a2561261f565b6000602082840312156126db57600080fd5b5051919050565b8082028115828204841417611a2557611a2561261f565b60008261271657634e487b7160e01b600052601260045260246000fd5b50049056fea2646970667358221220a0cf2ecbf645592f98a59ff312d2e91b686e915e22b3d401b05f9f8d2985d8d564736f6c63430008140033",
  "linkReferences": {},
  "deployedLinkReferences": {}
}