{
  "_format": "hh-sol-artifact-1",
  "contractName": "TeenPattiToken",
  "sourceName": "contracts/TeenPattiToken.sol",
  "abi": [
    {
      "inputs": [
        {
          "internalType": "address",
          "name": "_treasury",
          "type": "address"
        }
      ],
      "stateMutability": "nonpayable",
      "type": "constructor"
    },
    {
      "inputs": [
        {
          "internalType": "address",
          "name": "spender",
          "type": "address"
        },
        {
          "internalType": "uint256",
          "name": "allowance",
          "type": "uint256"
        },
        {
          "internalType": "uint256",
          "name": "needed",
          "type": "uint256"
        }
      ],
      "name": "ERC20InsufficientAllowance",
      "type": "error"
    },
    {
      "inputs": [
        {
          "internalType": "address",
          "name": "sender",
          "type": "address"
        },
        {
          "internalType": "uint256",
          "name": "balance",
          "type": "uint256"
        },
        {
          "internalType": "uint256",
          "name": "needed",
          "type": "uint256"
        }
      ],
      "name": "ERC20InsufficientBalance",
      "type": "error"
    },
    {
      "inputs": [
        {
          "internalType": "address",
          "name": "approver",
          "type": "address"
        }
      ],
      "name": "ERC20InvalidApprover",
      "type": "error"
    },
    {
      "inputs": [
        {
          "internalType": "address",
          "name": "receiver",
          "type": "address"
        }
      ],
      "name": "ERC20InvalidReceiver",
      "type": "error"
    },
    {
      "inputs": [
        {
          "internalType": "address",
          "name": "sender",
          "type": "address"
        }
      ],
      "name": "ERC20InvalidSender",
      "type": "error"
    },
    {
      "inputs": [
        {
          "internalType": "address",
          "name": "spender",
          "type": "address"
        }
      ],
      "name": "ERC20InvalidSpender",
      "type": "error"
    },
    {
      "inputs": [],
      "name": "EnforcedPause",
      "type": "error"
    },
    {
      "inputs": [],
      "name": "ExpectedPause",
      "type": "error"
    },
    {
      "inputs": [
        {
          "internalType": "address",
          "name": "owner",
          "type": "address"
        }
      ],
      "name": "OwnableInvalidOwner",
      "type": "error"
    },
    {
      "inputs": [
        {
          "internalType": "address",
          "name": "account",
          "type": "address"
        }
      ],
      "name": "OwnableUnauthorizedAccount",
      "type": "error"
    },
    {
      "inputs": [],
      "name": "ReentrancyGuardReentrantCall",
      "type": "error"
    },
    {
      "anonymous": false,
      "inputs": [
        {
          "indexed": true,
          "internalType": "address",
          "name": "owner",
          "type": "address"
        },
        {
          "indexed": true,
          "internalType": "address",
          "name": "spender",
          "type": "address"
        },
        {
          "indexed": false,
          "internalType": "uint256",
          "name": "value",
          "type": "uint256"
        }
      ],
      "name": "Approval",
      "type": "event"
    },
    {
      "anonymous": false,
      "inputs": [
        {
          "indexed": false,
          "internalType": "uint256",
          "name": "newBuyFee",
          "type": "uint256"
        },
        {
          "indexed": false,
          "internalType": "uint256",
          "name": "newSellFee",
          "type": "uint256"
        }
      ],
      "name": "FeesUpdated",
      "type": "event"
    },
    {
      "anonymous": false,
      "inputs": [
        {
          "indexed": true,
          "internalType": "address",
          "name": "previousOwner",
          "type": "address"
        },
        {
          "indexed": true,
          "internalType": "address",
          "name": "newOwner",
          "type": "address"
        }
      ],
      "name": "OwnershipTransferred",
      "type": "event"
    },
    {
      "anonymous": false,
      "inputs": [
        {
          "indexed": false,
          "internalType": "address",
          "name": "account",
          "type": "address"
        }
      ],
      "name": "Paused",
      "type": "event"
    },
    {
      "anonymous": false,
      "inputs": [
        {
          "indexed": true,
          "internalType": "address",
          "name": "buyer",
          "type": "address"
        },
        {
          "indexed": false,
          "internalType": "uint256",
          "name": "weiAmount",
          "type": "uint256"
        },
        {
          "indexed": false,
          "internalType": "uint256",
          "name": "tokenAmount",
          "type": "uint256"
        },
        {
          "indexed": false,
          "internalType": "uint256",
          "name": "fee",
          "type": "uint256"
        }
      ],
      "name": "TokensPurchased",
      "type": "event"
    },
    {
      "anonymous": false,
      "inputs": [
        {
          "indexed": true,
          "internalType": "address",
          "name": "seller",
          "type": "address"
        },
        {
          "indexed": false,
          "internalType": "uint256",
          "name": "tokenAmount",
          "type": "uint256"
        },
        {
          "indexed": false,
          "internalType": "uint256",
          "name": "weiAmount",
          "type": "uint256"
        },
        {
          "indexed": false,
          "internalType": "uint256",
          "name": "fee",
          "type": "uint256"
        }
      ],
      "name": "TokensSold",
      "type": "event"
    },
    {
      "anonymous": false,
      "inputs": [
        {
          "indexed": true,
          "internalType": "address",
          "name": "from",
          "type": "address"
        },
        {
          "indexed": true,
          "internalType": "address",
          "name": "to",
          "type": "address"
        },
        {
          "indexed": false,
          "internalType": "uint256",
          "name": "value",
          "type": "uint256"
        }
      ],
      "name": "Transfer",
      "type": "event"
    },
    {
      "anonymous": false,
      "inputs": [
        {
          "indexed": true,
          "internalType": "address",
          "name": "newTreasury",
          "type": "address"
        }
      ],
      "name": "TreasuryUpdated",
      "type": "event"
    },
    {
      "anonymous": false,
      "inputs": [
        {
          "indexed": false,
          "internalType": "address",
          "name": "account",
          "type": "address"
        }
      ],
      "name": "Unpaused",
      "type": "event"
    },
    {
      "inputs": [],
      "name": "MAX_SUPPLY",
      "outputs": [
        {
          "internalType": "uint256",
          "name": "",
          "type": "uint256"
        }
      ],
      "stateMutability": "view",
      "type": "function"
    },
    {
      "inputs": [],
      "name": "TOKENS_PER_WEI",
      "outputs": [
        {
          "internalType": "uint256",
          "name": "",
          "type": "uint256"
        }
      ],
      "stateMutability": "view",
      "type": "function"
    },
    {
      "inputs": [
        {
          "internalType": "address",
          "name": "owner",
          "type": "address"
        },
        {
          "internalType": "address",
          "name": "spender",
          "type": "address"
        }
      ],
      "name": "allowance",
      "outputs": [
        {
          "internalType": "uint256",
          "name": "",
          "type": "uint256"
        }
      ],
      "stateMutability": "view",
      "type": "function"
    },
    {
      "inputs": [
        {
          "internalType": "address",
          "name": "spender",
          "type": "address"
        },
        {
          "internalType": "uint256",
          "name": "value",
          "type": "uint256"
        }
      ],
      "name": "approve",
      "outputs": [
        {
          "internalType": "bool",
          "name": "",
          "type": "bool"
        }
      ],
      "stateMutability": "nonpayable",
      "type": "function"
    },
    {
      "inputs": [
        {
          "internalType": "address",
          "name": "account",
          "type": "address"
        }
      ],
      "name": "balanceOf",
      "outputs": [
        {
          "internalType": "uint256",
          "name": "",
          "type": "uint256"
        }
      ],
      "stateMutability": "view",
      "type": "function"
    },
    {
      "inputs": [
        {
          "internalType": "uint256",
          "name": "value",
          "type": "uint256"
        }
      ],
      "name": "burn",
      "outputs": [],
      "stateMutability": "nonpayable",
      "type": "function"
    },
    {
      "inputs": [
        {
          "internalType": "address",
          "name": "account",
          "type": "address"
        },
        {
          "internalType": "uint256",
          "name": "value",
          "type": "uint256"
        }
      ],
      "name": "burnFrom",
      "outputs": [],
      "stateMutability": "nonpayable",
      "type": "function"
    },
    {
      "inputs": [],
      "name": "buyFee",
      "outputs": [
        {
          "internalType": "uint256",
          "name": "",
          "type": "uint256"
        }
      ],
      "stateMutability": "view",
      "type": "function"
    },
    {
      "inputs": [],
      "name": "buyTokens",
      "outputs": [],
      "stateMutability": "payable",
      "type": "function"
    },
    {
      "inputs": [
        {
          "internalType": "uint256",
          "name": "weiAmount",
          "type": "uint256"
        }
      ],
      "name": "calculateTokensForWei",
      "outputs": [
        {
          "internalType": "uint256",
          "name": "",
          "type": "uint256"
        }
      ],
      "stateMutability": "view",
      "type": "function"
    },
    {
      "inputs": [
        {
          "internalType": "uint256",
          "name": "tokenAmount",
          "type": "uint256"
        }
      ],
      "name": "calculateWeiForTokens",
      "outputs": [
        {
          "internalType": "uint256",
          "name": "",
          "type": "uint256"
        }
      ],
      "stateMutability": "view",
      "type": "function"
    },
    {
      "inputs": [],
      "name": "decimals",
      "outputs": [
        {
          "internalType": "uint8",
          "name": "",
          "type": "uint8"
        }
      ],
      "stateMutability": "view",
      "type": "function"
    },
    {
      "inputs": [],
      "name": "getTokenPrice",
      "outputs": [
        {
          "internalType": "uint256",
          "name": "",
          "type": "uint256"
        }
      ],
      "stateMutability": "pure",
      "type": "function"
    },
    {
      "inputs": [
        {
          "internalType": "address",
          "name": "to",
          "type": "address"
        },
        {
          "internalType": "uint256",
          "name": "amount",
          "type": "uint256"
        }
      ],
      "name": "mint",
      "outputs": [],
      "stateMutability": "nonpayable",
      "type": "function"
    },
    {
      "inputs": [],
      "name": "name",
      "outputs": [
        {
          "internalType": "string",
          "name": "",
          "type": "string"
        }
      ],
      "stateMutability": "view",
      "type": "function"
    },
    {
      "inputs": [],
      "name": "owner",
      "outputs": [
        {
          "internalType": "address",
          "name": "",
          "type": "address"
        }
      ],
      "stateMutability": "view",
      "type": "function"
    },
    {
      "inputs": [],
      "name": "pause",
      "outputs": [],
      "stateMutability": "nonpayable",
      "type": "function"
    },
    {
      "inputs": [],
      "name": "paused",
      "outputs": [
        {
          "internalType": "bool",
          "name": "",
          "type": "bool"
        }
      ],
      "stateMutability": "view",
      "type": "function"
    },
    {
      "inputs": [],
      "name": "renounceOwnership",
      "outputs": [],
      "stateMutability": "nonpayable",
      "type": "function"
    },
    {
      "inputs": [],
      "name": "sellFee",
      "outputs": [
        {
          "internalType": "uint256",
          "name": "",
          "type": "uint256"
        }
      ],
      "stateMutability": "view",
      "type": "function"
    },
    {
      "inputs": [
        {
          "internalType": "uint256",
          "name": "tokenAmount",
          "type": "uint256"
        }
      ],
      "name": "sellTokens",
      "outputs": [],
      "stateMutability": "nonpayable",
      "type": "function"
    },
    {
      "inputs": [],
      "name": "symbol",
      "outputs": [
        {
          "internalType": "string",
          "name": "",
          "type": "string"
        }
      ],
      "stateMutability": "view",
      "type": "function"
    },
    {
      "inputs": [],
      "name": "totalSupply",
      "outputs": [
        {
          "internalType": "uint256",
          "name": "",
          "type": "uint256"
        }
      ],
      "stateMutability": "view",
      "type": "function"
    },
    {
      "inputs": [
        {
          "internalType": "address",
          "name": "to",
          "type": "address"
        },
        {
          "internalType": "uint256",
          "name": "value",
          "type": "uint256"
        }
      ],
      "name": "transfer",
      "outputs": [
        {
          "internalType": "bool",
          "name": "",
          "type": "bool"
        }
      ],
      "stateMutability": "nonpayable",
      "type": "function"
    },
    {
      "inputs": [
        {
          "internalType": "address",
          "name": "from",
          "type": "address"
        },
        {
          "internalType": "address",
          "name": "to",
          "type": "address"
        },
        {
          "internalType": "uint256",
          "name": "value",
          "type": "uint256"
        }
      ],
      "name": "transferFrom",
      "outputs": [
        {
          "internalType": "bool",
          "name": "",
          "type": "bool"
        }
      ],
      "stateMutability": "nonpayable",
      "type": "function"
    },
    {
      "inputs": [
        {
          "internalType": "address",
          "name": "newOwner",
          "type": "address"
        }
      ],
      "name": "transferOwnership",
      "outputs": [],
      "stateMutability": "nonpayable",
      "type": "function"
    },
    {
      "inputs": [],
      "name": "treasury",
      "outputs": [
        {
          "internalType": "address",
          "name": "",
          "type": "address"
        }
      ],
      "stateMutability": "view",
      "type": "function"
    },
    {
      "inputs": [],
      "name": "unpause",
      "outputs": [],
      "stateMutability": "nonpayable",
      "type": "function"
    },
    {
      "inputs": [
        {
          "internalType": "uint256",
          "name": "_buyFee",
          "type": "uint256"
        },
        {
          "internalType": "uint256",
          "name": "_sellFee",
          "type": "uint256"
        }
      ],
      "name": "updateFees",
      "outputs": [],
      "stateMutability": "nonpayable",
      "type": "function"
    },
    {
      "inputs": [
        {
          "internalType": "address",
          "name": "_newTreasury",
          "type": "address"
        }
      ],
      "name": "updateTreasury",
      "outputs": [],
      "stateMutability": "nonpayable",
      "type": "function"
    },
    {
      "inputs": [],
      "name": "withdrawBalance",
      "outputs": [],
      "stateMutability": "nonpayable",
      "type": "function"
    },
    {
      "stateMutability": "payable",
      "type": "receive"
    }
  ],
  "bytecode": "0x6080604052606460075560c86008553480156200001b57600080fd5b5060405162001b5e38038062001b5e8339810160408190526200003e916200033a565b336040518060400160405280600e81526020016d2a32b2b72830ba3a34aa37b5b2b760911b8152506040518060400160405280600381526020016215141560ea1b815250816003908162000093919062000411565b506004620000a2828262000411565b5050506001600160a01b038116620000d557604051631e4fbdf760e01b8152600060048201526024015b60405180910390fd5b620000e08162000177565b5060016006556001600160a01b0381166200013e5760405162461bcd60e51b815260206004820152601860248201527f496e76616c6964207472656173757279206164647265737300000000000000006044820152606401620000cc565b600980546001600160a01b0319166001600160a01b03831617905562000170336a52b7d2dcc80cd2e4000000620001c9565b5062000505565b600580546001600160a01b038381166001600160a01b0319831681179093556040519116919082907f8be0079c531659141344cd1fd0a4f28419497f9722a3daafe3b4186f6b6457e090600090a35050565b6001600160a01b038216620001f55760405163ec442f0560e01b815260006004820152602401620000cc565b620002036000838362000207565b5050565b6001600160a01b038316620002365780600260008282546200022a9190620004dd565b90915550620002aa9050565b6001600160a01b038316600090815260208190526040902054818110156200028b5760405163391434e360e21b81526001600160a01b03851660048201526024810182905260448101839052606401620000cc565b6001600160a01b03841660009081526020819052604090209082900390555b6001600160a01b038216620002c857600280548290039055620002e7565b6001600160a01b03821660009081526020819052604090208054820190555b816001600160a01b0316836001600160a01b03167fddf252ad1be2c89b69c2b068fc378daa952ba7f163c4a11628f55a4df523b3ef836040516200032d91815260200190565b60405180910390a3505050565b6000602082840312156200034d57600080fd5b81516001600160a01b03811681146200036557600080fd5b9392505050565b634e487b7160e01b600052604160045260246000fd5b600181811c908216806200039757607f821691505b602082108103620003b857634e487b7160e01b600052602260045260246000fd5b50919050565b601f8211156200040c57600081815260208120601f850160051c81016020861015620003e75750805b601f850160051c820191505b818110156200040857828155600101620003f3565b5050505b505050565b81516001600160401b038111156200042d576200042d6200036c565b62000445816200043e845462000382565b84620003be565b602080601f8311600181146200047d5760008415620004645750858301515b600019600386901b1c1916600185901b17855562000408565b600085815260208120601f198616915b82811015620004ae578886015182559484019460019091019084016200048d565b5085821015620004cd5787850151600019600388901b60f8161c191681555b5050505050600190811b01905550565b80820180821115620004ff57634e487b7160e01b600052601160045260246000fd5b92915050565b61164980620005156000396000f3fe6080604052600436106101dc5760003560e01c806361d027b3116101025780638da5cb5b11610095578063c1a3f0ae11610064578063c1a3f0ae14610531578063d0febe4c14610551578063dd62ed3e14610559578063f2fde38b1461059f57600080fd5b80638da5cb5b146104be57806395d89b41146104dc578063a9059cbb146104f1578063ab153f881461051157600080fd5b8063715018a6116100d1578063715018a61461045457806379cc6790146104695780637f51bb1f146104895780638456cb59146104a957600080fd5b806361d027b3146103a65780636c11bcd3146103de5780636db79437146103fe57806370a082311461041e57600080fd5b806332cb6b0c1161017a578063470624021161014957806347062402146103475780634b94f50e1461035d5780635c975abb146103725780635fd8c7101461039157600080fd5b806332cb6b0c146102d05780633f4ba83a146102f057806340c10f191461030757806342966c681461032757600080fd5b806318160ddd116101b657806318160ddd1461026957806323b872dd1461027e5780632b14ca561461029e578063313ce567146102b457600080fd5b806306fdde03146101e8578063095ea7b31461021357806313aaa3931461024357600080fd5b366101e357005b600080fd5b3480156101f457600080fd5b506101fd6105bf565b60405161020a9190611404565b60405180910390f35b34801561021f57600080fd5b5061023361022e36600461146e565b610651565b604051901515815260200161020a565b34801561024f57600080fd5b5061025b633b9aca0081565b60405190815260200161020a565b34801561027557600080fd5b5060025461025b565b34801561028a57600080fd5b50610233610299366004611498565b61066b565b3480156102aa57600080fd5b5061025b60085481565b3480156102c057600080fd5b506040516012815260200161020a565b3480156102dc57600080fd5b5061025b6b033b2e3c9fd0803ce800000081565b3480156102fc57600080fd5b5061030561068f565b005b34801561031357600080fd5b5061030561032236600461146e565b6106a1565b34801561033357600080fd5b506103056103423660046114d4565b610720565b34801561035357600080fd5b5061025b60075481565b34801561036957600080fd5b5061025b61072d565b34801561037e57600080fd5b50600554600160a01b900460ff16610233565b34801561039d57600080fd5b5061030561074a565b3480156103b257600080fd5b506009546103c6906001600160a01b031681565b6040516001600160a01b03909116815260200161020a565b3480156103ea57600080fd5b506103056103f93660046114d4565b610841565b34801561040a57600080fd5b506103056104193660046114ed565b610b15565b34801561042a57600080fd5b5061025b61043936600461150f565b6001600160a01b031660009081526020819052604090205490565b34801561046057600080fd5b50610305610bef565b34801561047557600080fd5b5061030561048436600461146e565b610c01565b34801561049557600080fd5b506103056104a436600461150f565b610c16565b3480156104b557600080fd5b50610305610cbe565b3480156104ca57600080fd5b506005546001600160a01b03166103c6565b3480156104e857600080fd5b506101fd610cce565b3480156104fd57600080fd5b5061023361050c36600461146e565b610cdd565b34801561051d57600080fd5b5061025b61052c3660046114d4565b610ceb565b34801561053d57600080fd5b5061025b61054c3660046114d4565b610d2f565b610305610d55565b34801561056557600080fd5b5061025b610574366004611531565b6001600160a01b03918216600090815260016020908152604080832093909416825291909152205490565b3480156105ab57600080fd5b506103056105ba36600461150f565b610ed8565b6060600380546105ce90611564565b80601f01602080910402602001604051908101604052809291908181526020018280546105fa90611564565b80156106475780601f1061061c57610100808354040283529160200191610647565b820191906000526020600020905b81548152906001019060200180831161062a57829003601f168201915b5050505050905090565b60003361065f818585610f13565b60019150505b92915050565b600033610679858285610f25565b610684858585610fa4565b506001949350505050565b610697611003565b61069f611030565b565b6106a9611003565b6b033b2e3c9fd0803ce8000000816106c060025490565b6106ca91906115b4565b11156107125760405162461bcd60e51b815260206004820152601260248201527145786365656473206d617820737570706c7960701b60448201526064015b60405180910390fd5b61071c8282611085565b5050565b61072a33826110bb565b50565b6000610745633b9aca00670de0b6b3a76400006115c7565b905090565b610752611003565b47806107995760405162461bcd60e51b81526020600482015260166024820152754e6f2062616c616e636520746f20776974686472617760501b6044820152606401610709565b60006107ad6005546001600160a01b031690565b6001600160a01b03168260405160006040518083038185875af1925050503d80600081146107f7576040519150601f19603f3d011682016040523d82523d6000602084013e6107fc565b606091505b505090508061071c5760405162461bcd60e51b815260206004820152601160248201527015da5d1a191c985dd85b0819985a5b1959607a1b6044820152606401610709565b6108496110f1565b61085161111b565b600081116108a15760405162461bcd60e51b815260206004820152601960248201527f4d7573742073656c6c20706f73697469766520616d6f756e74000000000000006044820152606401610709565b336000908152602081905260409020548111156109005760405162461bcd60e51b815260206004820152601a60248201527f496e73756666696369656e7420746f6b656e2062616c616e63650000000000006044820152606401610709565b6000610910633b9aca00836115c7565b905060006127106008548361092591906115e9565b61092f91906115c7565b9050600061093d8284611600565b90508047101561098f5760405162461bcd60e51b815260206004820152601d60248201527f496e73756666696369656e7420636f6e74726163742062616c616e63650000006044820152606401610709565b61099933856110bb565b604051600090339083908381818185875af1925050503d80600081146109db576040519150601f19603f3d011682016040523d82523d6000602084013e6109e0565b606091505b5050905080610a235760405162461bcd60e51b815260206004820152600f60248201526e151c985b9cd9995c8819985a5b1959608a1b6044820152606401610709565b8215610ac4576009546040516000916001600160a01b03169085908381818185875af1925050503d8060008114610a76576040519150601f19603f3d011682016040523d82523d6000602084013e610a7b565b606091505b5050905080610ac25760405162461bcd60e51b8152602060048201526013602482015272119959481d1c985b9cd9995c8819985a5b1959606a1b6044820152606401610709565b505b604080518681526020810184905290810184905233907f6db63bebf1e6540277744df32846ebdb98385b1a73f2d5de49b28348add63f509060600160405180910390a25050505061072a6001600655565b610b1d611003565b6101f4821115610b625760405162461bcd60e51b815260206004820152601060248201526f084eaf240cccaca40e8dede40d0d2ced60831b6044820152606401610709565b6101f4811115610ba85760405162461bcd60e51b81526020600482015260116024820152700a6cad8d840cccaca40e8dede40d0d2ced607b1b6044820152606401610709565b6007829055600881905560408051838152602081018390527f5c6323bf1c2d7aaea2c091a4751c1c87af7f2864650c336507a77d0557af37a1910160405180910390a15050565b610bf7611003565b61069f6000611146565b610c0c823383610f25565b61071c82826110bb565b610c1e611003565b6001600160a01b038116610c745760405162461bcd60e51b815260206004820152601860248201527f496e76616c6964207472656173757279206164647265737300000000000000006044820152606401610709565b600980546001600160a01b0319166001600160a01b0383169081179091556040517f7dae230f18360d76a040c81f050aa14eb9d6dc7901b20fc5d855e2a20fe814d190600090a250565b610cc6611003565b61069f611198565b6060600480546105ce90611564565b60003361065f818585610fa4565b600080610cfc633b9aca00846115c7565b9050600061271060085483610d1191906115e9565b610d1b91906115c7565b9050610d278183611600565b949350505050565b600080610d40633b9aca00846115e9565b9050600061271060075483610d1191906115e9565b610d5d6110f1565b610d6561111b565b60003411610dbf5760405162461bcd60e51b815260206004820152602160248201527f4d7573742073656e64204554482f4d4154494320746f2062757920746f6b656e6044820152607360f81b6064820152608401610709565b6000610dcf633b9aca00346115e9565b9050600061271060075483610de491906115e9565b610dee91906115c7565b90506000610dfc8284611600565b90506b033b2e3c9fd0803ce800000083610e1560025490565b610e1f91906115b4565b1115610e625760405162461bcd60e51b815260206004820152601260248201527145786365656473206d617820737570706c7960701b6044820152606401610709565b610e6c3382611085565b8115610e8857600954610e88906001600160a01b031683611085565b604080513481526020810183905290810183905233907f0d1a0d5e3d583a0e92588799dd06e50fd78c07daf05f0cc06d7b848b1ca445f19060600160405180910390a250505061069f6001600655565b610ee0611003565b6001600160a01b038116610f0a57604051631e4fbdf760e01b815260006004820152602401610709565b61072a81611146565b610f2083838360016111db565b505050565b6001600160a01b03838116600090815260016020908152604080832093861683529290522054600019811015610f9e5781811015610f8f57604051637dc7a0d960e11b81526001600160a01b03841660048201526024810182905260448101839052606401610709565b610f9e848484840360006111db565b50505050565b6001600160a01b038316610fce57604051634b637e8f60e11b815260006004820152602401610709565b6001600160a01b038216610ff85760405163ec442f0560e01b815260006004820152602401610709565b610f208383836112b0565b6005546001600160a01b0316331461069f5760405163118cdaa760e01b8152336004820152602401610709565b6110386113da565b6005805460ff60a01b191690557f5db9ee0a495bf2e6ff9c91a7834c1ba4fdd244a5e8aa4e537bd38aeae4b073aa335b6040516001600160a01b03909116815260200160405180910390a1565b6001600160a01b0382166110af5760405163ec442f0560e01b815260006004820152602401610709565b61071c600083836112b0565b6001600160a01b0382166110e557604051634b637e8f60e11b815260006004820152602401610709565b61071c826000836112b0565b60026006540361111457604051633ee5aeb560e01b815260040160405180910390fd5b6002600655565b600554600160a01b900460ff161561069f5760405163d93c066560e01b815260040160405180910390fd5b600580546001600160a01b038381166001600160a01b0319831681179093556040519116919082907f8be0079c531659141344cd1fd0a4f28419497f9722a3daafe3b4186f6b6457e090600090a35050565b6111a061111b565b6005805460ff60a01b1916600160a01b1790557f62e78cea01bee320cd4e420270b5ea74000d11b0c9f74754ebdbfc544b05a2586110683390565b6001600160a01b0384166112055760405163e602df0560e01b815260006004820152602401610709565b6001600160a01b03831661122f57604051634a1406b160e11b815260006004820152602401610709565b6001600160a01b0380851660009081526001602090815260408083209387168352929052208290558015610f9e57826001600160a01b0316846001600160a01b03167f8c5be1e5ebec7d5bd14f71427d1e84f3dd0314c0f7b2291e5b200ac8c7c3b925846040516112a291815260200190565b60405180910390a350505050565b6001600160a01b0383166112db5780600260008282546112d091906115b4565b9091555061134d9050565b6001600160a01b0383166000908152602081905260409020548181101561132e5760405163391434e360e21b81526001600160a01b03851660048201526024810182905260448101839052606401610709565b6001600160a01b03841660009081526020819052604090209082900390555b6001600160a01b03821661136957600280548290039055611388565b6001600160a01b03821660009081526020819052604090208054820190555b816001600160a01b0316836001600160a01b03167fddf252ad1be2c89b69c2b068fc378daa952ba7f163c4a11628f55a4df523b3ef836040516113cd91815260200190565b60405180910390a3505050565b600554600160a01b900460ff1661069f57604051638dfc202b60e01b815260040160405180910390fd5b600060208083528351808285015260005b8181101561143157858101830151858201604001528201611415565b506000604082860101526040601f19601f8301168501019250505092915050565b80356001600160a01b038116811461146957600080fd5b919050565b6000806040838503121561148157600080fd5b61148a83611452565b946020939093013593505050565b6000806000606084860312156114ad57600080fd5b6114b684611452565b92506114c460208501611452565b9150604084013590509250925092565b6000602082840312156114e657600080fd5b5035919050565b6000806040838503121561150057600080fd5b50508035926020909101359150565b60006020828403121561152157600080fd5b61152a82611452565b9392505050565b6000806040838503121561154457600080fd5b61154d83611452565b915061155b60208401611452565b90509250929050565b600181811c9082168061157857607f821691505b60208210810361159857634e487b7160e01b600052602260045260246000fd5b50919050565b634e487b7160e01b600052601160045260246000fd5b808201808211156106655761066561159e565b6000826115e457634e487b7160e01b600052601260045260246000fd5b500490565b80820281158282048414176106655761066561159e565b818103818111156106655761066561159e56fea264697066735822122069958c7922d2a2af129b240780c344db1638c51617de1bfafd51792f7d8ef09664736f6c63430008140033",
  "linkReferences": {},
  "deployedLinkReferences": {}
}