{
  "_format": "hh-sol-artifact-1",
  "contractName": "TeenPattiGame",
  "sourceName": "contracts/TeenPattiGame.sol",
  "abi": [
    {
      "inputs": [
        {
          "internalType": "address",
          "name": "_token",
          "type": "address"
        },
        {
          "internalType": "address",
          "name": "_treasury",
          "type": "address"
        }
      ],
      "stateMutability": "nonpayable",
      "type": "constructor"
    },
    {
      "inputs": [],
      "name": "EnforcedPause",
      "type": "error"
    },
    {
      "inputs": [],
      "name": "ExpectedPause",
      "type": "error"
    },
    {
      "inputs": [
        {
          "internalType": "address",
          "name": "owner",
          "type": "address"
        }
      ],
      "name": "OwnableInvalidOwner",
      "type": "error"
    },
    {
      "inputs": [
        {
          "internalType": "address",
          "name": "account",
          "type": "address"
        }
      ],
      "name": "OwnableUnauthorizedAccount",
      "type": "error"
    },
    {
      "inputs": [],
      "name": "ReentrancyGuardReentrantCall",
      "type": "error"
    },
    {
      "anonymous": false,
      "inputs": [
        {
          "indexed": true,
          "internalType": "bytes32",
          "name": "roomId",
          "type": "bytes32"
        },
        {
          "indexed": true,
          "internalType": "address",
          "name": "player",
          "type": "address"
        },
        {
          "indexed": false,
          "internalType": "uint256",
          "name": "amount",
          "type": "uint256"
        }
      ],
      "name": "BetPlaced",
      "type": "event"
    },
    {
      "anonymous": false,
      "inputs": [
        {
          "indexed": true,
          "internalType": "bytes32",
          "name": "roomId",
          "type": "bytes32"
        },
        {
          "indexed": true,
          "internalType": "address",
          "name": "player",
          "type": "address"
        },
        {
          "indexed": false,
          "internalType": "uint256",
          "name": "amount",
          "type": "uint256"
        }
      ],
      "name": "EmergencyWithdraw",
      "type": "event"
    },
    {
      "anonymous": false,
      "inputs": [
        {
          "indexed": true,
          "internalType": "bytes32",
          "name": "roomId",
          "type": "bytes32"
        },
        {
          "indexed": false,
          "internalType": "uint256",
          "name": "pot",
          "type": "uint256"
        },
        {
          "indexed": false,
          "internalType": "uint256",
          "name": "playerCount",
          "type": "uint256"
        }
      ],
      "name": "GameStarted",
      "type": "event"
    },
    {
      "anonymous": false,
      "inputs": [
        {
          "indexed": true,
          "internalType": "address",
          "name": "previousOwner",
          "type": "address"
        },
        {
          "indexed": true,
          "internalType": "address",
          "name": "newOwner",
          "type": "address"
        }
      ],
      "name": "OwnershipTransferred",
      "type": "event"
    },
    {
      "anonymous": false,
      "inputs": [
        {
          "indexed": false,
          "internalType": "address",
          "name": "account",
          "type": "address"
        }
      ],
      "name": "Paused",
      "type": "event"
    },
    {
      "anonymous": false,
      "inputs": [
        {
          "indexed": true,
          "internalType": "bytes32",
          "name": "roomId",
          "type": "bytes32"
        },
        {
          "indexed": true,
          "internalType": "address",
          "name": "player",
          "type": "address"
        },
        {
          "indexed": false,
          "internalType": "uint256",
          "name": "buyIn",
          "type": "uint256"
        }
      ],
      "name": "PlayerJoined",
      "type": "event"
    },
    {
      "anonymous": false,
      "inputs": [
        {
          "indexed": true,
          "internalType": "bytes32",
          "name": "roomId",
          "type": "bytes32"
        },
        {
          "indexed": true,
          "internalType": "address",
          "name": "player",
          "type": "address"
        },
        {
          "indexed": false,
          "internalType": "uint256",
          "name": "refund",
          "type": "uint256"
        }
      ],
      "name": "PlayerLeft",
      "type": "event"
    },
    {
      "anonymous": false,
      "inputs": [
        {
          "indexed": false,
          "internalType": "uint256",
          "name": "newRakeFee",
          "type": "uint256"
        }
      ],
      "name": "RakeFeeUpdated",
      "type": "event"
    },
    {
      "anonymous": false,
      "inputs": [
        {
          "indexed": true,
          "internalType": "bytes32",
          "name": "roomId",
          "type": "bytes32"
        }
      ],
      "name": "RoomClosed",
      "type": "event"
    },
    {
      "anonymous": false,
      "inputs": [
        {
          "indexed": true,
          "internalType": "bytes32",
          "name": "roomId",
          "type": "bytes32"
        },
        {
          "indexed": true,
          "internalType": "address",
          "name": "creator",
          "type": "address"
        },
        {
          "indexed": false,
          "internalType": "uint256",
          "name": "buyIn",
          "type": "uint256"
        },
        {
          "indexed": false,
          "internalType": "uint256",
          "name": "maxPlayers",
          "type": "uint256"
        }
      ],
      "name": "RoomCreated",
      "type": "event"
    },
    {
      "anonymous": false,
      "inputs": [
        {
          "indexed": true,
          "internalType": "address",
          "name": "newTreasury",
          "type": "address"
        }
      ],
      "name": "TreasuryUpdated",
      "type": "event"
    },
    {
      "anonymous": false,
      "inputs": [
        {
          "indexed": false,
          "internalType": "address",
          "name": "account",
          "type": "address"
        }
      ],
      "name": "Unpaused",
      "type": "event"
    },
    {
      "anonymous": false,
      "inputs": [
        {
          "indexed": true,
          "internalType": "bytes32",
          "name": "roomId",
          "type": "bytes32"
        },
        {
          "indexed": true,
          "internalType": "address",
          "name": "winner",
          "type": "address"
        },
        {
          "indexed": false,
          "internalType": "uint256",
          "name": "amount",
          "type": "uint256"
        },
        {
          "indexed": false,
          "internalType": "uint256",
          "name": "rake",
          "type": "uint256"
        }
      ],
      "name": "WinnerDeclared",
      "type": "event"
    },
    {
      "inputs": [],
      "name": "GAME_TIMEOUT",
      "outputs": [
        {
          "internalType": "uint256",
          "name": "",
          "type": "uint256"
        }
      ],
      "stateMutability": "view",
      "type": "function"
    },
    {
      "inputs": [
        {
          "internalType": "uint256",
          "name": "",
          "type": "uint256"
        }
      ],
      "name": "activeRoomIds",
      "outputs": [
        {
          "internalType": "bytes32",
          "name": "",
          "type": "bytes32"
        }
      ],
      "stateMutability": "view",
      "type": "function"
    },
    {
      "inputs": [
        {
          "internalType": "bytes32",
          "name": "_roomId",
          "type": "bytes32"
        }
      ],
      "name": "closeRoom",
      "outputs": [],
      "stateMutability": "nonpayable",
      "type": "function"
    },
    {
      "inputs": [
        {
          "internalType": "uint256",
          "name": "_buyIn",
          "type": "uint256"
        },
        {
          "internalType": "uint256",
          "name": "_maxPlayers",
          "type": "uint256"
        }
      ],
      "name": "createRoom",
      "outputs": [
        {
          "internalType": "bytes32",
          "name": "",
          "type": "bytes32"
        }
      ],
      "stateMutability": "nonpayable",
      "type": "function"
    },
    {
      "inputs": [
        {
          "internalType": "bytes32",
          "name": "_roomId",
          "type": "bytes32"
        },
        {
          "internalType": "address",
          "name": "_winner",
          "type": "address"
        }
      ],
      "name": "declareWinner",
      "outputs": [],
      "stateMutability": "nonpayable",
      "type": "function"
    },
    {
      "inputs": [
        {
          "internalType": "bytes32",
          "name": "_roomId",
          "type": "bytes32"
        }
      ],
      "name": "emergencyWithdraw",
      "outputs": [],
      "stateMutability": "nonpayable",
      "type": "function"
    },
    {
      "inputs": [],
      "name": "getActiveRooms",
      "outputs": [
        {
          "internalType": "bytes32[]",
          "name": "",
          "type": "bytes32[]"
        }
      ],
      "stateMutability": "view",
      "type": "function"
    },
    {
      "inputs": [
        {
          "internalType": "bytes32",
          "name": "_roomId",
          "type": "bytes32"
        },
        {
          "internalType": "address",
          "name": "_player",
          "type": "address"
        }
      ],
      "name": "getPlayerBalance",
      "outputs": [
        {
          "internalType": "uint256",
          "name": "",
          "type": "uint256"
        }
      ],
      "stateMutability": "view",
      "type": "function"
    },
    {
      "inputs": [
        {
          "internalType": "address",
          "name": "_player",
          "type": "address"
        }
      ],
      "name": "getPlayerRooms",
      "outputs": [
        {
          "internalType": "bytes32[]",
          "name": "",
          "type": "bytes32[]"
        }
      ],
      "stateMutability": "view",
      "type": "function"
    },
    {
      "inputs": [
        {
          "internalType": "bytes32",
          "name": "_roomId",
          "type": "bytes32"
        }
      ],
      "name": "getRoomDetails",
      "outputs": [
        {
          "internalType": "address",
          "name": "creator",
          "type": "address"
        },
        {
          "internalType": "uint256",
          "name": "buyIn",
          "type": "uint256"
        },
        {
          "internalType": "uint256",
          "name": "pot",
          "type": "uint256"
        },
        {
          "internalType": "uint256",
          "name": "maxPlayers",
          "type": "uint256"
        },
        {
          "internalType": "uint256",
          "name": "currentPlayers",
          "type": "uint256"
        },
        {
          "internalType": "enum TeenPattiGame.GameState",
          "name": "state",
          "type": "uint8"
        },
        {
          "internalType": "address",
          "name": "winner",
          "type": "address"
        }
      ],
      "stateMutability": "view",
      "type": "function"
    },
    {
      "inputs": [
        {
          "internalType": "bytes32",
          "name": "_roomId",
          "type": "bytes32"
        }
      ],
      "name": "getRoomPlayers",
      "outputs": [
        {
          "internalType": "address[]",
          "name": "",
          "type": "address[]"
        }
      ],
      "stateMutability": "view",
      "type": "function"
    },
    {
      "inputs": [],
      "name": "getTotalRakeCollected",
      "outputs": [
        {
          "internalType": "uint256",
          "name": "",
          "type": "uint256"
        }
      ],
      "stateMutability": "view",
      "type": "function"
    },
    {
      "inputs": [
        {
          "internalType": "bytes32",
          "name": "_roomId",
          "type": "bytes32"
        }
      ],
      "name": "handleTimeout",
      "outputs": [],
      "stateMutability": "nonpayable",
      "type": "function"
    },
    {
      "inputs": [
        {
          "internalType": "bytes32",
          "name": "_roomId",
          "type": "bytes32"
        }
      ],
      "name": "joinRoom",
      "outputs": [],
      "stateMutability": "nonpayable",
      "type": "function"
    },
    {
      "inputs": [
        {
          "internalType": "bytes32",
          "name": "_roomId",
          "type": "bytes32"
        }
      ],
      "name": "leaveRoom",
      "outputs": [],
      "stateMutability": "nonpayable",
      "type": "function"
    },
    {
      "inputs": [],
      "name": "owner",
      "outputs": [
        {
          "internalType": "address",
          "name": "",
          "type": "address"
        }
      ],
      "stateMutability": "view",
      "type": "function"
    },
    {
      "inputs": [],
      "name": "pause",
      "outputs": [],
      "stateMutability": "nonpayable",
      "type": "function"
    },
    {
      "inputs": [],
      "name": "paused",
      "outputs": [
        {
          "internalType": "bool",
          "name": "",
          "type": "bool"
        }
      ],
      "stateMutability": "view",
      "type": "function"
    },
    {
      "inputs": [
        {
          "internalType": "bytes32",
          "name": "_roomId",
          "type": "bytes32"
        },
        {
          "internalType": "address",
          "name": "_player",
          "type": "address"
        },
        {
          "internalType": "uint256",
          "name": "_amount",
          "type": "uint256"
        }
      ],
      "name": "placeBet",
      "outputs": [],
      "stateMutability": "nonpayable",
      "type": "function"
    },
    {
      "inputs": [
        {
          "internalType": "address",
          "name": "",
          "type": "address"
        },
        {
          "internalType": "uint256",
          "name": "",
          "type": "uint256"
        }
      ],
      "name": "playerRooms",
      "outputs": [
        {
          "internalType": "bytes32",
          "name": "",
          "type": "bytes32"
        }
      ],
      "stateMutability": "view",
      "type": "function"
    },
    {
      "inputs": [],
      "name": "rakeFee",
      "outputs": [
        {
          "internalType": "uint256",
          "name": "",
          "type": "uint256"
        }
      ],
      "stateMutability": "view",
      "type": "function"
    },
    {
      "inputs": [
        {
          "internalType": "address",
          "name": "_token",
          "type": "address"
        },
        {
          "internalType": "uint256",
          "name": "_amount",
          "type": "uint256"
        }
      ],
      "name": "recoverTokens",
      "outputs": [],
      "stateMutability": "nonpayable",
      "type": "function"
    },
    {
      "inputs": [],
      "name": "renounceOwnership",
      "outputs": [],
      "stateMutability": "nonpayable",
      "type": "function"
    },
    {
      "inputs": [
        {
          "internalType": "bytes32",
          "name": "",
          "type": "bytes32"
        }
      ],
      "name": "rooms",
      "outputs": [
        {
          "internalType": "bytes32",
          "name": "roomId",
          "type": "bytes32"
        },
        {
          "internalType": "address",
          "name": "creator",
          "type": "address"
        },
        {
          "internalType": "uint256",
          "name": "buyIn",
          "type": "uint256"
        },
        {
          "internalType": "uint256",
          "name": "pot",
          "type": "uint256"
        },
        {
          "internalType": "uint256",
          "name": "maxPlayers",
          "type": "uint256"
        },
        {
          "internalType": "enum TeenPattiGame.GameState",
          "name": "state",
          "type": "uint8"
        },
        {
          "internalType": "address",
          "name": "winner",
          "type": "address"
        },
        {
          "internalType": "uint256",
          "name": "createdAt",
          "type": "uint256"
        },
        {
          "internalType": "uint256",
          "name": "finishedAt",
          "type": "uint256"
        }
      ],
      "stateMutability": "view",
      "type": "function"
    },
    {
      "inputs": [
        {
          "internalType": "bytes32",
          "name": "_roomId",
          "type": "bytes32"
        }
      ],
      "name": "startGame",
      "outputs": [],
      "stateMutability": "nonpayable",
      "type": "function"
    },
    {
      "inputs": [],
      "name": "token",
      "outputs": [
        {
          "internalType": "contract IERC20",
          "name": "",
          "type": "address"
        }
      ],
      "stateMutability": "view",
      "type": "function"
    },
    {
      "inputs": [],
      "name": "totalRakeCollected",
      "outputs": [
        {
          "internalType": "uint256",
          "name": "",
          "type": "uint256"
        }
      ],
      "stateMutability": "view",
      "type": "function"
    },
    {
      "inputs": [
        {
          "internalType": "address",
          "name": "newOwner",
          "type": "address"
        }
      ],
      "name": "transferOwnership",
      "outputs": [],
      "stateMutability": "nonpayable",
      "type": "function"
    },
    {
      "inputs": [],
      "name": "treasury",
      "outputs": [
        {
          "internalType": "address",
          "name": "",
          "type": "address"
        }
      ],
      "stateMutability": "view",
      "type": "function"
    },
    {
      "inputs": [],
      "name": "unpause",
      "outputs": [],
      "stateMutability": "nonpayable",
      "type": "function"
    },
    {
      "inputs": [
        {
          "internalType": "uint256",
          "name": "_newRakeFee",
          "type": "uint256"
        }
      ],
      "name": "updateRakeFee",
      "outputs": [],
      "stateMutability": "nonpayable",
      "type": "function"
    },
    {
      "inputs": [
        {
          "internalType": "address",
          "name": "_newTreasury",
          "type": "address"
        }
      ],
      "name": "updateTreasury",
      "outputs": [],
      "stateMutability": "nonpayable",
      "type": "function"
    }
  ],
  "bytecode": "0x60806040526101f46006553480156200001757600080fd5b5060405162002927380380620029278339810160408190526200003a91620001cb565b33806200006257604051631e4fbdf760e01b8152600060048201526024015b60405180910390fd5b6200006d816200015e565b50600180556001600160a01b038216620000ca5760405162461bcd60e51b815260206004820152601560248201527f496e76616c696420746f6b656e20616464726573730000000000000000000000604482015260640162000059565b6001600160a01b038116620001225760405162461bcd60e51b815260206004820152601860248201527f496e76616c696420747265617375727920616464726573730000000000000000604482015260640162000059565b60028054610100600160a81b0319166101006001600160a01b0394851602179055600780546001600160a01b0319169190921617905562000203565b600080546001600160a01b038381166001600160a01b0319831681178455604051919092169283917f8be0079c531659141344cd1fd0a4f28419497f9722a3daafe3b4186f6b6457e09190a35050565b80516001600160a01b0381168114620001c657600080fd5b919050565b60008060408385031215620001df57600080fd5b620001ea83620001ae565b9150620001fa60208401620001ae565b90509250929050565b61271480620002136000396000f3fe608060405234801561001057600080fd5b50600436106101f05760003560e01c806375870d651161010f578063ab196acd116100a2578063ea57326511610071578063ea573265146104bc578063f2fde38b146104cf578063f54fdb00146104e2578063fc0c546a1461050257600080fd5b8063ab196acd14610403578063af8b9b1814610416578063bc0730e814610429578063d7fbc2e41461043c57600080fd5b806385039bf6116100de57806385039bf6146103c15780638a8cefca146103d65780638da5cb5b146103e9578063aa34331b146103fa57600080fd5b806375870d6514610380578063775e729b146103935780637f51bb1f146103a65780638456cb59146103b957600080fd5b806346bf746d1161018757806361d027b31161015657806361d027b3146103275780636e9359e414610352578063715018a6146103655780637569a69e1461036d57600080fd5b806346bf746d146102e35780634b29b4c4146102eb5780634c92fb12146102fe5780635c975abb1461031157600080fd5b806322707265116101c3578063227072651461024257806335f1e587146102555780633c7192c1146102c85780633f4ba83a146102db57600080fd5b8063069c9fae146101f5578063099420b61461020a5780631d4fd9611461022657806321fe77aa1461022f575b600080fd5b61020861020336600461236e565b61051a565b005b610213610e1081565b6040519081526020015b60405180910390f35b61021360065481565b61020861023d366004612398565b61060c565b610213610250366004612398565b6109c9565b6102b5610263366004612398565b60009081526003602081905260409091206001810154918101546004820154600583015460028401546006909401546001600160a01b0395861696939592949193919260ff8216926101009092041690565b60405161021d97969594939291906123e9565b6102086102d6366004612398565b6109ea565b610208610bfb565b600854610213565b6102086102f9366004612398565b610c0d565b61020861030c366004612398565b610ff9565b60025460ff16604051901515815260200161021d565b60075461033a906001600160a01b031681565b6040516001600160a01b03909116815260200161021d565b610208610360366004612439565b6111d3565b610208611521565b61020861037b366004612465565b611533565b61020861038e366004612398565b611737565b6102136103a1366004612439565b6119b8565b6102086103b436600461249a565b6119e5565b610208611a8d565b6103c9611a9d565b60405161021d91906124bc565b6103c96103e436600461249a565b611af5565b6000546001600160a01b031661033a565b61021360085481565b610213610411366004612500565b611b61565b610208610424366004612398565b611f54565b61021361043736600461236e565b612072565b6104a761044a366004612398565b60036020819052600091825260409091208054600182015492820154600483015460058401546006850154600786015460089096015494966001600160a01b039081169694959394929360ff831693610100909304909116919089565b60405161021d99989796959493929190612522565b6102086104ca366004612398565b6120a3565b6102086104dd36600461249a565b61212c565b6104f56104f0366004612398565b612167565b60405161021d919061257f565b60025461033a9061010090046001600160a01b031681565b6105226121d5565b6001600160a01b0382166105755760405162461bcd60e51b8152602060048201526015602482015274496e76616c696420746f6b656e206164647265737360581b60448201526064015b60405180910390fd5b816001600160a01b031663a9059cbb6105966000546001600160a01b031690565b6040516001600160e01b031960e084901b1681526001600160a01b039091166004820152602481018490526044016020604051808303816000875af11580156105e3573d6000803e3d6000fd5b505050506040513d601f19601f8201168201806040525081019061060791906125c0565b505050565b610614612202565b6000818152600360209081526040808320338452600a81019092529091205460ff166106755760405162461bcd60e51b815260206004820152601060248201526f4e6f7420696e207468697320726f6f6d60801b604482015260640161056c565b6000600682015460ff166003811115610690576106906123b1565b146106d45760405162461bcd60e51b815260206004820152601460248201527311d85b5948185b1c9958591e481cdd185c9d195960621b604482015260640161056c565b3360009081526009820160205260409020548061072a5760405162461bcd60e51b8152602060048201526014602482015273139bc818985b185b98d9481d1bc81c99599d5b9960621b604482015260640161056c565b336000908152600a830160209081526040808320805460ff191690556009850190915281208190556004830180548392906107669084906125f8565b90915550600090505b600283015481101561087e57336001600160a01b031683600201828154811061079a5761079a61260b565b6000918252602090912001546001600160a01b03160361086c576002830180546107c6906001906125f8565b815481106107d6576107d661260b565b6000918252602090912001546002840180546001600160a01b0390921691839081106108045761080461260b565b9060005260206000200160006101000a8154816001600160a01b0302191690836001600160a01b031602179055508260020180548061084557610845612621565b600082815260209020810160001990810180546001600160a01b031916905501905561087e565b8061087681612637565b91505061076f565b5060025460405163a9059cbb60e01b8152336004820152602481018390526101009091046001600160a01b03169063a9059cbb906044016020604051808303816000875af11580156108d4573d6000803e3d6000fd5b505050506040513d601f19601f820116820180604052508101906108f891906125c0565b61093d5760405162461bcd60e51b81526020600482015260166024820152751499599d5b99081d1c985b9cd9995c8819985a5b195960521b604482015260640161056c565b604051818152339084907fcf0d7a42a42baf449dbf1a7c4b7b9a7f4bac3a411564ef0d46979e7fb9a59bfd9060200160405180910390a360028201546000036109bb5760068201805460ff1916600317905560405183907ff89b62d5ed31af5007e4f697e3397fd9a3854dfecb25a7dd0c8d3d9bf8bd816890600090a25b50506109c660018055565b50565b600581815481106109d957600080fd5b600091825260209091200154905081565b6109f2612202565b60008181526003602052604090206001600682015460ff166003811115610a1b57610a1b6123b1565b14610a385760405162461bcd60e51b815260040161056c90612650565b610e108160070154610a4a9190612679565b421015610a8f5760405162461bcd60e51b8152602060048201526013602482015272151a5b595bdd5d081b9bdd081c995858da1959606a1b604482015260640161056c565b60005b6002820154811015610bb0576000826002018281548110610ab557610ab561260b565b60009182526020909120015460038401546001600160a01b0390911691508015610b9b5760025460405163a9059cbb60e01b81526001600160a01b038481166004830152602482018490526101009092049091169063a9059cbb906044016020604051808303816000875af1158015610b32573d6000803e3d6000fd5b505050506040513d601f19601f82011682018060405250810190610b5691906125c0565b610b9b5760405162461bcd60e51b81526020600482015260166024820152751499599d5b99081d1c985b9cd9995c8819985a5b195960521b604482015260640161056c565b50508080610ba890612637565b915050610a92565b5060068101805460ff1916600317905560006004820181905560405183917ff89b62d5ed31af5007e4f697e3397fd9a3854dfecb25a7dd0c8d3d9bf8bd816891a2506109c660018055565b610c036121d5565b610c0b61222c565b565b610c15612202565b610c1d61227e565b600081815260036020526040902060018101546001600160a01b0316610c7b5760405162461bcd60e51b8152602060048201526013602482015272149bdbdb48191bd95cc81b9bdd08195e1a5cdd606a1b604482015260640161056c565b6000600682015460ff166003811115610c9657610c966123b1565b14610ce35760405162461bcd60e51b815260206004820152601a60248201527f526f6f6d206e6f7420616363657074696e6720706c6179657273000000000000604482015260640161056c565b336000908152600a8201602052604090205460ff1615610d455760405162461bcd60e51b815260206004820152601860248201527f416c7265616479206a6f696e6564207468697320726f6f6d0000000000000000604482015260640161056c565b6005810154600282015410610d8b5760405162461bcd60e51b815260206004820152600c60248201526b149bdbdb481a5cc8199d5b1b60a21b604482015260640161056c565b60038101546002546040516370a0823160e01b81523360048201526101009091046001600160a01b0316906370a0823190602401602060405180830381865afa158015610ddc573d6000803e3d6000fd5b505050506040513d601f19601f82011682018060405250810190610e00919061268c565b1015610e4e5760405162461bcd60e51b815260206004820152601a60248201527f496e73756666696369656e7420746f6b656e2062616c616e6365000000000000604482015260640161056c565b60025460038201546040516323b872dd60e01b815233600482015230602482015260448101919091526101009091046001600160a01b0316906323b872dd906064016020604051808303816000875af1158015610eaf573d6000803e3d6000fd5b505050506040513d601f19601f82011682018060405250810190610ed391906125c0565b610f175760405162461bcd60e51b8152602060048201526015602482015274151bdad95b881d1c985b9cd9995c8819985a5b1959605a1b604482015260640161056c565b600281018054600181810183556000928352602080842090920180546001600160a01b03191633908117909155600385018054918552600986018452604080862092909255600a86019093528320805460ff191690911790555460048301805491929091610f86908490612679565b9091555050336000818152600460209081526040808320805460018101825590845291909220018490556003830154905184917f65525cf08411b7a61d237681a43890956ad2e2ede88afd947f58eb4158c37f9591610fe791815260200190565b60405180910390a3506109c660018055565b611001612202565b600081815260036020526040902060018101546001600160a01b031661105f5760405162461bcd60e51b8152602060048201526013602482015272149bdbdb48191bd95cc81b9bdd08195e1a5cdd606a1b604482015260640161056c565b60018101546001600160a01b031633148061108457506000546001600160a01b031633145b6110c15760405162461bcd60e51b815260206004820152600e60248201526d139bdd08185d5d1a1bdc9a5e995960921b604482015260640161056c565b6000600682015460ff1660038111156110dc576110dc6123b1565b146111205760405162461bcd60e51b815260206004820152601460248201527311d85b5948185b1c9958591e481cdd185c9d195960621b604482015260640161056c565b60028181015410156111745760405162461bcd60e51b815260206004820152601760248201527f4e656564206174206c65617374203220706c6179657273000000000000000000604482015260640161056c565b60068101805460ff191660011790556004810154600282015460408051928352602083019190915283917f38f56d43c299aca81fdefe3bba16676fb1482e023cd61ab890dfdb087117e9d3910160405180910390a2506109c660018055565b6111db612202565b60008281526003602052604090206001600682015460ff166003811115611204576112046123b1565b146112215760405162461bcd60e51b815260040161056c90612650565b6001600160a01b0382166000908152600a8201602052604090205460ff166112805760405162461bcd60e51b815260206004820152601260248201527157696e6e6572206e6f7420696e20726f6f6d60701b604482015260640161056c565b6004810154806112c95760405162461bcd60e51b81526020600482015260146024820152734e6f20706f7420746f206469737472696275746560601b604482015260640161056c565b6000612710600654836112dc91906126a5565b6112e691906126bc565b905060006112f482846125f8565b6006850180546001600160a01b038881166101008181026001600160a81b03199094169390931760029081179094554260088a015560006004808b0191909155935460405163a9059cbb60e01b8152948501919091526024840185905293945092049091169063a9059cbb906044016020604051808303816000875af1158015611382573d6000803e3d6000fd5b505050506040513d601f19601f820116820180604052508101906113a691906125c0565b6113eb5760405162461bcd60e51b815260206004820152601660248201527515da5b9b995c881d1c985b9cd9995c8819985a5b195960521b604482015260640161056c565b81156114ca5760025460075460405163a9059cbb60e01b81526001600160a01b03918216600482015260248101859052610100909204169063a9059cbb906044016020604051808303816000875af115801561144b573d6000803e3d6000fd5b505050506040513d601f19601f8201168201806040525081019061146f91906125c0565b6114b25760405162461bcd60e51b815260206004820152601460248201527314985ad9481d1c985b9cd9995c8819985a5b195960621b604482015260640161056c565b81600860008282546114c49190612679565b90915550505b60408051828152602081018490526001600160a01b0387169188917f29b433d2cb0c1f1a8245540e06ffe118d2013464095f475f9e057308c0f0bac7910160405180910390a35050505061151d60018055565b5050565b6115296121d5565b610c0b60006122a2565b61153b612202565b600083815260036020526040812090546001600160a01b031633146115a25760405162461bcd60e51b815260206004820152601b60248201527f4f6e6c79206261636b656e642063616e20706c61636520626574730000000000604482015260640161056c565b6001600682015460ff1660038111156115bd576115bd6123b1565b146115da5760405162461bcd60e51b815260040161056c90612650565b6001600160a01b0383166000908152600a8201602052604090205460ff166116395760405162461bcd60e51b8152602060048201526012602482015271506c61796572206e6f7420696e20726f6f6d60701b604482015260640161056c565b6001600160a01b03831660009081526009820160205260409020548211156116a35760405162461bcd60e51b815260206004820152601b60248201527f496e73756666696369656e7420706c617965722062616c616e63650000000000604482015260640161056c565b6001600160a01b0383166000908152600982016020526040812080548492906116cd9084906125f8565b92505081905550818160040160008282546116e89190612679565b90915550506040518281526001600160a01b0384169085907fcd5f79909b53eb4c55b0a2d7004914519bad1e3ade1b3dae6005d528d83da31e9060200160405180910390a35061060760018055565b61173f612202565b6000818152600360209081526040808320338452600a81019092529091205460ff166117a05760405162461bcd60e51b815260206004820152601060248201526f4e6f7420696e207468697320726f6f6d60801b604482015260640161056c565b6001600682015460ff1660038111156117bb576117bb6123b1565b146117d85760405162461bcd60e51b815260040161056c90612650565b336000908152600982016020526040902054806118305760405162461bcd60e51b81526020600482015260166024820152754e6f2062616c616e636520746f20776974686472617760501b604482015260640161056c565b6000612710611841836103e86126a5565b61184b91906126bc565b9050600061185982846125f8565b3360008181526009870160209081526040808320839055600a890190915290819020805460ff19169055600254905163a9059cbb60e01b815292935061010090046001600160a01b03169163a9059cbb916118cc9185906004016001600160a01b03929092168252602082015260400190565b6020604051808303816000875af11580156118eb573d6000803e3d6000fd5b505050506040513d601f19601f8201168201806040525081019061190f91906125c0565b61195b5760405162461bcd60e51b815260206004820152601860248201527f5769746864726177207472616e73666572206661696c65640000000000000000604482015260640161056c565b8184600401600082825461196f9190612679565b9091555050604051818152339086907fd3e69353709a7dcaab28b44353b592c552cd797c95ffb523f924c0a16b4a2c2b9060200160405180910390a3505050506109c660018055565b60008281526003602090815260408083206001600160a01b03851684526009019091529020545b92915050565b6119ed6121d5565b6001600160a01b038116611a435760405162461bcd60e51b815260206004820152601860248201527f496e76616c696420747265617375727920616464726573730000000000000000604482015260640161056c565b600780546001600160a01b0319166001600160a01b0383169081179091556040517f7dae230f18360d76a040c81f050aa14eb9d6dc7901b20fc5d855e2a20fe814d190600090a250565b611a956121d5565b610c0b6122f2565b60606005805480602002602001604051908101604052809291908181526020018280548015611aeb57602002820191906000526020600020905b815481526020019060010190808311611ad7575b5050505050905090565b6001600160a01b038116600090815260046020908152604091829020805483518184028101840190945280845260609392830182828015611b5557602002820191906000526020600020905b815481526020019060010190808311611b41575b50505050509050919050565b6000611b6b612202565b611b7361227e565b60008311611bc35760405162461bcd60e51b815260206004820152601760248201527f4275792d696e206d75737420626520706f736974697665000000000000000000604482015260640161056c565b60028210158015611bd5575060068211155b611c175760405162461bcd60e51b8152602060048201526013602482015272496e76616c6964206d617820706c617965727360681b604482015260640161056c565b6002546040516370a0823160e01b8152336004820152849161010090046001600160a01b0316906370a0823190602401602060405180830381865afa158015611c64573d6000803e3d6000fd5b505050506040513d601f19601f82011682018060405250810190611c88919061268c565b1015611cd65760405162461bcd60e51b815260206004820152601a60248201527f496e73756666696369656e7420746f6b656e2062616c616e6365000000000000604482015260640161056c565b6040516bffffffffffffffffffffffff193360601b16602082015242603482015244605482015260009060740160408051808303601f19018152828252805160209182012062ffffff60e01b8116600081815260039384905293909320838155600181018054336001600160a01b031990911681179091559281018990556005810188905560068101805460ff191690554260078201556002546323b872dd60e01b865260048601939093523060248601526044850189905290945091926001600160a01b0361010090920491909116906323b872dd906064016020604051808303816000875af1158015611dcf573d6000803e3d6000fd5b505050506040513d601f19601f82011682018060405250810190611df391906125c0565b611e375760405162461bcd60e51b8152602060048201526015602482015274151bdad95b881d1c985b9cd9995c8819985a5b1959605a1b604482015260640161056c565b600281018054600180820183556000928352602080842090920180546001600160a01b0319163390811790915580845260098501835260408085208b9055600a86018452808520805460ff19168417905560048087018c9055600580548086019091557f036b6384b5eca791c62761152d0c79bb0604c104a5fb6f4eb0703f3154bb3db00188905584528085208054938401815585529383902090910185905582518981529182018890529184917f7205d4960f11b42d9694576da1d12e22b637d2eaac623cc7a27f41509be13523910160405180910390a3604051868152339083907f65525cf08411b7a61d237681a43890956ad2e2ede88afd947f58eb4158c37f959060200160405180910390a3509150506119df60018055565b60008181526003602052604090206002600682015460ff166003811115611f7d57611f7d6123b1565b1480611fa157506003600682015460ff166003811115611f9f57611f9f6123b1565b145b611fe15760405162461bcd60e51b815260206004820152601160248201527011d85b59481b9bdd08199a5b9a5cda1959607a1b604482015260640161056c565b60018101546001600160a01b031633148061200657506000546001600160a01b031633145b6120435760405162461bcd60e51b815260206004820152600e60248201526d139bdd08185d5d1a1bdc9a5e995960921b604482015260640161056c565b60405182907ff89b62d5ed31af5007e4f697e3397fd9a3854dfecb25a7dd0c8d3d9bf8bd816890600090a25050565b6004602052816000526040600020818154811061208e57600080fd5b90600052602060002001600091509150505481565b6120ab6121d5565b6103e88111156120f15760405162461bcd60e51b81526020600482015260116024820152700a4c2d6ca40cccaca40e8dede40d0d2ced607b1b604482015260640161056c565b60068190556040518181527f6b845bb86927d69db9a0fd7699fedbadfd7c12ad26d8cf7490c7fb8348ca958e9060200160405180910390a150565b6121346121d5565b6001600160a01b03811661215e57604051631e4fbdf760e01b81526000600482015260240161056c565b6109c6816122a2565b600081815260036020908152604091829020600201805483518184028101840190945280845260609392830182828015611b5557602002820191906000526020600020905b81546001600160a01b031681526001909101906020018083116121ac5750505050509050919050565b6000546001600160a01b03163314610c0b5760405163118cdaa760e01b815233600482015260240161056c565b60026001540361222557604051633ee5aeb560e01b815260040160405180910390fd5b6002600155565b61223461232f565b6002805460ff191690557f5db9ee0a495bf2e6ff9c91a7834c1ba4fdd244a5e8aa4e537bd38aeae4b073aa335b6040516001600160a01b03909116815260200160405180910390a1565b60025460ff1615610c0b5760405163d93c066560e01b815260040160405180910390fd5b600080546001600160a01b038381166001600160a01b0319831681178455604051919092169283917f8be0079c531659141344cd1fd0a4f28419497f9722a3daafe3b4186f6b6457e09190a35050565b6122fa61227e565b6002805460ff191660011790557f62e78cea01bee320cd4e420270b5ea74000d11b0c9f74754ebdbfc544b05a2586122613390565b60025460ff16610c0b57604051638dfc202b60e01b815260040160405180910390fd5b80356001600160a01b038116811461236957600080fd5b919050565b6000806040838503121561238157600080fd5b61238a83612352565b946020939093013593505050565b6000602082840312156123aa57600080fd5b5035919050565b634e487b7160e01b600052602160045260246000fd5b600481106123e557634e487b7160e01b600052602160045260246000fd5b9052565b6001600160a01b0388811682526020820188905260408201879052606082018690526080820185905260e082019061242460a08401866123c7565b80841660c08401525098975050505050505050565b6000806040838503121561244c57600080fd5b8235915061245c60208401612352565b90509250929050565b60008060006060848603121561247a57600080fd5b8335925061248a60208501612352565b9150604084013590509250925092565b6000602082840312156124ac57600080fd5b6124b582612352565b9392505050565b6020808252825182820181905260009190848201906040850190845b818110156124f4578351835292840192918401916001016124d8565b50909695505050505050565b6000806040838503121561251357600080fd5b50508035926020909101359150565b8981526001600160a01b03898116602083015260408201899052606082018890526080820187905261012082019061255d60a08401886123c7565b9490941660c082015260e0810192909252610100909101529695505050505050565b6020808252825182820181905260009190848201906040850190845b818110156124f45783516001600160a01b03168352928401929184019160010161259b565b6000602082840312156125d257600080fd5b815180151581146124b557600080fd5b634e487b7160e01b600052601160045260246000fd5b818103818111156119df576119df6125e2565b634e487b7160e01b600052603260045260246000fd5b634e487b7160e01b600052603160045260246000fd5b600060018201612649576126496125e2565b5060010190565b6020808252600f908201526e47616d65206e6f742061637469766560881b604082015260600190565b808201808211156119df576119df6125e2565b60006020828403121561269e57600080fd5b5051919050565b80820281158282048414176119df576119df6125e2565b6000826126d957634e487b7160e01b600052601260045260246000fd5b50049056fea26469706673582212204549c8dc2a8e73276b557c6ab7f0fa956f5ea3d10d79b86285476436c140db0e64736f6c63430008140033",
  "linkReferences": {},
  "deployedLinkReferences": {}
}